{
  "_format": "hh-sol-artifact-1",
  "contractName": "DummyOpml",
  "sourceName": "contracts/DummyOpml.sol",
  "abi": [
    {
      "inputs": [],
      "stateMutability": "nonpayable",
      "type": "constructor"
    },
    {
      "anonymous": false,
      "inputs": [
        {
          "indexed": false,
          "internalType": "uint256",
          "name": "requestId",
          "type": "uint256"
        },
        {
          "indexed": false,
          "internalType": "bytes32",
          "name": "responseHash",
          "type": "bytes32"
        }
      ],
      "name": "Confirm",
      "type": "event"
    },
    {
      "inputs": [
        {
          "internalType": "address",
          "name": "_address",
          "type": "address"
        }
      ],
      "name": "addToWhitelist",
      "outputs": [],
      "stateMutability": "nonpayable",
      "type": "function"
    },
    {
      "inputs": [
        {
          "internalType": "uint256",
          "name": "challengeId",
          "type": "uint256"
        }
      ],
      "name": "assertStateTransition",
      "outputs": [],
      "stateMutability": "nonpayable",
      "type": "function"
    },
    {
      "inputs": [
        {
          "internalType": "uint256",
          "name": "",
          "type": "uint256"
        }
      ],
      "name": "challenges",
      "outputs": [
        {
          "internalType": "uint256",
          "name": "requestId",
          "type": "uint256"
        },
        {
          "internalType": "address payable",
          "name": "submitter",
          "type": "address"
        },
        {
          "internalType": "address payable",
          "name": "challenger",
          "type": "address"
        },
        {
          "internalType": "uint256",
          "name": "currentPhase",
          "type": "uint256"
        },
        {
          "internalType": "bool",
          "name": "toNextPhase",
          "type": "bool"
        },
        {
          "internalType": "bytes32",
          "name": "outputHash",
          "type": "bytes32"
        }
      ],
      "stateMutability": "view",
      "type": "function"
    },
    {
      "inputs": [
        {
          "internalType": "uint256",
          "name": "requestId",
          "type": "uint256"
        },
        {
          "internalType": "bytes32",
          "name": "responseHash",
          "type": "bytes32"
        }
      ],
      "name": "confirm",
      "outputs": [],
      "stateMutability": "nonpayable",
      "type": "function"
    },
    {
      "inputs": [
        {
          "internalType": "uint256",
          "name": "requestId",
          "type": "uint256"
        }
      ],
      "name": "getOutput",
      "outputs": [
        {
          "internalType": "bytes",
          "name": "output",
          "type": "bytes"
        }
      ],
      "stateMutability": "view",
      "type": "function"
    },
    {
      "inputs": [
        {
          "internalType": "bytes32",
          "name": "modelHash",
          "type": "bytes32"
        },
        {
          "internalType": "bytes32",
          "name": "programHash",
          "type": "bytes32"
        },
        {
          "internalType": "bytes",
          "name": "input",
          "type": "bytes"
        }
      ],
      "name": "initOpmlRequest",
      "outputs": [
        {
          "internalType": "uint256",
          "name": "requestId",
          "type": "uint256"
        }
      ],
      "stateMutability": "nonpayable",
      "type": "function"
    },
    {
      "inputs": [
        {
          "internalType": "uint256",
          "name": "requestId",
          "type": "uint256"
        }
      ],
      "name": "isFinalized",
      "outputs": [
        {
          "internalType": "bool",
          "name": "",
          "type": "bool"
        }
      ],
      "stateMutability": "view",
      "type": "function"
    },
    {
      "inputs": [],
      "name": "lastChallengeId",
      "outputs": [
        {
          "internalType": "uint256",
          "name": "",
          "type": "uint256"
        }
      ],
      "stateMutability": "view",
      "type": "function"
    },
    {
      "inputs": [],
      "name": "lastRequestId",
      "outputs": [
        {
          "internalType": "uint256",
          "name": "",
          "type": "uint256"
        }
      ],
      "stateMutability": "view",
      "type": "function"
    },
    {
      "inputs": [
        {
          "internalType": "uint256",
          "name": "challengeId",
          "type": "uint256"
        },
        {
          "internalType": "bytes32",
          "name": "stateHash",
          "type": "bytes32"
        }
      ],
      "name": "proposeState",
      "outputs": [],
      "stateMutability": "nonpayable",
      "type": "function"
    },
    {
      "inputs": [
        {
          "internalType": "address",
          "name": "_address",
          "type": "address"
        }
      ],
      "name": "removeFromWhitelist",
      "outputs": [],
      "stateMutability": "nonpayable",
      "type": "function"
    },
    {
      "inputs": [
        {
          "internalType": "uint256",
          "name": "",
          "type": "uint256"
        }
      ],
      "name": "requestExists",
      "outputs": [
        {
          "internalType": "bool",
          "name": "",
          "type": "bool"
        }
      ],
      "stateMutability": "view",
      "type": "function"
    },
    {
      "inputs": [
        {
          "internalType": "uint256",
          "name": "",
          "type": "uint256"
        }
      ],
      "name": "requests",
      "outputs": [
        {
          "internalType": "bytes",
          "name": "input",
          "type": "bytes"
        },
        {
          "internalType": "bytes32",
          "name": "modelHash",
          "type": "bytes32"
        },
        {
          "internalType": "bytes32",
          "name": "programHash",
          "type": "bytes32"
        },
        {
          "internalType": "bytes32",
          "name": "startState",
          "type": "bytes32"
        },
        {
          "internalType": "bytes",
          "name": "output",
          "type": "bytes"
        },
        {
          "internalType": "address",
          "name": "submitter",
          "type": "address"
        },
        {
          "internalType": "uint256",
          "name": "challengeId",
          "type": "uint256"
        },
        {
          "internalType": "bool",
          "name": "isInChallenge",
          "type": "bool"
        },
        {
          "internalType": "uint256",
          "name": "submitBlockTime",
          "type": "uint256"
        }
      ],
      "stateMutability": "view",
      "type": "function"
    },
    {
      "inputs": [
        {
          "internalType": "uint256",
          "name": "challengeId",
          "type": "uint256"
        },
        {
          "internalType": "bytes32",
          "name": "stateHash",
          "type": "bytes32"
        }
      ],
      "name": "respondState",
      "outputs": [],
      "stateMutability": "nonpayable",
      "type": "function"
    },
    {
      "inputs": [
        {
          "internalType": "uint256",
          "name": "_lastRequestId",
          "type": "uint256"
        }
      ],
      "name": "setLastRequestId",
      "outputs": [],
      "stateMutability": "nonpayable",
      "type": "function"
    },
    {
      "inputs": [
        {
          "internalType": "address",
          "name": "_oracle",
          "type": "address"
        }
      ],
      "name": "setOracleAddress",
      "outputs": [],
      "stateMutability": "nonpayable",
      "type": "function"
    },
    {
      "inputs": [
        {
          "internalType": "uint256",
          "name": "requestId",
          "type": "uint256"
        },
        {
          "internalType": "bytes",
          "name": "output",
          "type": "bytes"
        },
        {
          "internalType": "bytes32",
          "name": "finalState",
          "type": "bytes32"
        },
        {
          "internalType": "uint256",
          "name": "stepCount",
          "type": "uint256"
        }
      ],
      "name": "startChallenge",
      "outputs": [
        {
          "internalType": "uint256",
          "name": "",
          "type": "uint256"
        }
      ],
      "stateMutability": "nonpayable",
      "type": "function"
    },
    {
      "inputs": [
        {
          "internalType": "uint256",
          "name": "_challengePeriod",
          "type": "uint256"
        }
      ],
      "name": "updateChallengePeriod",
      "outputs": [],
      "stateMutability": "nonpayable",
      "type": "function"
    },
    {
      "inputs": [
        {
          "internalType": "bytes32",
          "name": "modelHash",
          "type": "bytes32"
        },
        {
          "internalType": "bytes32",
          "name": "programHash",
          "type": "bytes32"
        }
      ],
      "name": "uploadModel",
      "outputs": [],
      "stateMutability": "nonpayable",
      "type": "function"
    },
    {
      "inputs": [
        {
          "internalType": "uint256",
          "name": "requestId",
          "type": "uint256"
        },
        {
          "internalType": "bytes",
          "name": "output",
          "type": "bytes"
        }
      ],
      "name": "uploadResult",
      "outputs": [],
      "stateMutability": "nonpayable",
      "type": "function"
    },
    {
      "inputs": [
        {
          "internalType": "address",
          "name": "",
          "type": "address"
        }
      ],
      "name": "whitelist",
      "outputs": [
        {
          "internalType": "bool",
          "name": "",
          "type": "bool"
        }
      ],
      "stateMutability": "view",
      "type": "function"
    }
  ],
  "bytecode": "0x60806040526000600855600060095534801561001a57600080fd5b50336000806101000a81548173ffffffffffffffffffffffffffffffffffffffff021916908373ffffffffffffffffffffffffffffffffffffffff1602179055506001600260008060009054906101000a900473ffffffffffffffffffffffffffffffffffffffff1673ffffffffffffffffffffffffffffffffffffffff1673ffffffffffffffffffffffffffffffffffffffff16815260200190815260200160002060006101000a81548160ff021916908315150217905550603c600381905550612a0e806100eb6000396000f3fe608060405234801561001057600080fd5b50600436106101375760003560e01c80638ab1d681116100b8578063b902b2ec1161007c578063b902b2ec14610367578063bb8632cd14610383578063c61b0b761461039f578063e43252d7146103cf578063ea277eca146103eb578063fc2a88c31461041b57610137565b80638ab1d681146102ac5780638f1d3776146102c85780639b19251a146102fd578063a0d666e91461032d578063ac8602181461034b57610137565b80634c69c00f116100ff5780634c69c00f146102045780635c3d15191461022057806375e814691461023c57806379c28f5e1461025857806381d12c581461027457610137565b806317861f871461013c5780631b40abf21461016c57806333727c4d1461019c57806335803d82146101cc578063480f07c8146101e8575b600080fd5b6101566004803603810190610151919061185b565b610439565b6040516101639190611918565b60405180910390f35b610186600480360381019061018191906119d5565b61059c565b6040516101939190611a6c565b60405180910390f35b6101b660048036038101906101b1919061185b565b610a41565b6040516101c39190611aa2565b60405180910390f35b6101e660048036038101906101e19190611abd565b610ad9565b005b61020260048036038101906101fd9190611afd565b610b69565b005b61021e60048036038101906102199190611bbb565b610d6d565b005b61023a60048036038101906102359190611be8565b610eb9565b005b61025660048036038101906102519190611abd565b610f86565b005b610272600480360381019061026d919061185b565b610fc3565b005b61028e6004803603810190610289919061185b565b61105b565b6040516102a399989796959493929190611c46565b60405180910390f35b6102c660048036038101906102c19190611bbb565b6111e6565b005b6102e260048036038101906102dd919061185b565b6112cf565b6040516102f496959493929190611d02565b60405180910390f35b61031760048036038101906103129190611bbb565b611358565b6040516103249190611aa2565b60405180910390f35b610335611378565b6040516103429190611a6c565b60405180910390f35b6103656004803603810190610360919061185b565b61137e565b005b610381600480360381019061037c919061185b565b61140d565b005b61039d60048036038101906103989190611abd565b6114a5565b005b6103b960048036038101906103b49190611d63565b611535565b6040516103c69190611a6c565b60405180910390f35b6103e960048036038101906103e49190611bbb565b6116d3565b005b6104056004803603810190610400919061185b565b6117bc565b6040516104129190611aa2565b60405180910390f35b6104236117dc565b6040516104309190611a6c565b60405180910390f35b6060816006600082815260200190815260200160002060009054906101000a900460ff1661049c576040517f08c379a000000000000000000000000000000000000000000000000000000000815260040161049390611e34565b60405180910390fd5b600060056000858152602001908152602001600020905060008160040180546104c490611e83565b905003610506576040517f08c379a00000000000000000000000000000000000000000000000000000000081526004016104fd90611f00565b60405180910390fd5b80600401805461051590611e83565b80601f016020809104026020016040519081016040528092919081815260200182805461054190611e83565b801561058e5780601f106105635761010080835404028352916020019161058e565b820191906000526020600020905b81548152906001019060200180831161057157829003601f168201915b505050505092505050919050565b6000600260003373ffffffffffffffffffffffffffffffffffffffff1673ffffffffffffffffffffffffffffffffffffffff16815260200190815260200160002060009054906101000a900460ff1661062a576040517f08c379a000000000000000000000000000000000000000000000000000000000815260040161062190611f6c565b60405180910390fd5b856006600082815260200190815260200160002060009054906101000a900460ff1661068b576040517f08c379a000000000000000000000000000000000000000000000000000000000815260040161068290611e34565b60405180910390fd5b600060056000898152602001908152602001600020905060008160040180546106b390611e83565b9050036106f5576040517f08c379a00000000000000000000000000000000000000000000000000000000081526004016106ec90612070565b60405180910390fd5b6106fe88610a41565b1561073e576040517f08c379a000000000000000000000000000000000000000000000000000000000815260040161073590612102565b60405180910390fd5b8060070160009054906101000a900460ff1615610790576040517f08c379a0000000000000000000000000000000000000000000000000000000008152600401610787906121ba565b60405180910390fd5b86866040516107a0929190612219565b6040518091039020816004016040516107b991906122ca565b604051809103902003610801576040517f08c379a00000000000000000000000000000000000000000000000000000000081526004016107f890612379565b60405180910390fd5b60018160070160006101000a81548160ff02191690831515021790555060008160030154905060006008600081548092919061083c906123c8565b91905055905060006004600083815260200190815260200160002090508184600601819055508a8160000181905550898960405161087b929190612219565b604051809103902081600b0181905550338160060160006101000a81548173ffffffffffffffffffffffffffffffffffffffff021916908373ffffffffffffffffffffffffffffffffffffffff1602179055508360050160009054906101000a900473ffffffffffffffffffffffffffffffffffffffff168160050160006101000a81548173ffffffffffffffffffffffffffffffffffffffff021916908373ffffffffffffffffffffffffffffffffffffffff160217905550828160030160008081526020019081526020016000206000808152602001908152602001600020819055508281600401600080815260200190815260200160002060008081526020019081526020016000208190555087816003016000808152602001908152602001600020600089815260200190815260200160002081905550600081600701819055506000816001016000808152602001908152602001600020819055508681600201600080815260200190815260200160002081905550868160090160008360070154815260200190815260200160002081905550600081600a0160006101000a81548160ff021916908315150217905550819550505050505095945050505050565b6000816006600082815260200190815260200160002060009054906101000a900460ff16610aa4576040517f08c379a0000000000000000000000000000000000000000000000000000000008152600401610a9b90611e34565b60405180910390fd5b6000600560008581526020019081526020016000209050600354816008015443610ace9190612410565b101592505050919050565b600260003373ffffffffffffffffffffffffffffffffffffffff1673ffffffffffffffffffffffffffffffffffffffff16815260200190815260200160002060009054906101000a900460ff16610b65576040517f08c379a0000000000000000000000000000000000000000000000000000000008152600401610b5c90611f6c565b60405180910390fd5b5050565b600260003373ffffffffffffffffffffffffffffffffffffffff1673ffffffffffffffffffffffffffffffffffffffff16815260200190815260200160002060009054906101000a900460ff16610bf5576040517f08c379a0000000000000000000000000000000000000000000000000000000008152600401610bec90611f6c565b60405180910390fd5b826006600082815260200190815260200160002060009054906101000a900460ff16610c56576040517f08c379a0000000000000000000000000000000000000000000000000000000008152600401610c4d90611e34565b60405180910390fd5b60006005600086815260200190815260200160002090506000816004018054610c7e90611e83565b905014610cc0576040517f08c379a0000000000000000000000000000000000000000000000000000000008152600401610cb790612528565b60405180910390fd5b60008484905003610d06576040517f08c379a0000000000000000000000000000000000000000000000000000000008152600401610cfd906125ba565b60405180910390fd5b4381600801819055508383826004019182610d229291906127ab565b50338160050160006101000a81548173ffffffffffffffffffffffffffffffffffffffff021916908373ffffffffffffffffffffffffffffffffffffffff1602179055505050505050565b60008054906101000a900473ffffffffffffffffffffffffffffffffffffffff1673ffffffffffffffffffffffffffffffffffffffff163373ffffffffffffffffffffffffffffffffffffffff1614610dfb576040517f08c379a0000000000000000000000000000000000000000000000000000000008152600401610df2906128c7565b60405180910390fd5b80600160006101000a81548173ffffffffffffffffffffffffffffffffffffffff021916908373ffffffffffffffffffffffffffffffffffffffff160217905550600160026000600160009054906101000a900473ffffffffffffffffffffffffffffffffffffffff1673ffffffffffffffffffffffffffffffffffffffff1673ffffffffffffffffffffffffffffffffffffffff16815260200190815260200160002060006101000a81548160ff02191690831515021790555050565b600260003373ffffffffffffffffffffffffffffffffffffffff1673ffffffffffffffffffffffffffffffffffffffff16815260200190815260200160002060009054906101000a900460ff16610f45576040517f08c379a0000000000000000000000000000000000000000000000000000000008152600401610f3c90611f6c565b60405180910390fd5b600160076000848152602001908152602001600020600083815260200190815260200160002060006101000a81548160ff0219169083151502179055505050565b7f1431da546383fff133465741319243e707a22cc6db3a4fa84a8e02b4947135b38282604051610fb79291906128e7565b60405180910390a15050565b60008054906101000a900473ffffffffffffffffffffffffffffffffffffffff1673ffffffffffffffffffffffffffffffffffffffff163373ffffffffffffffffffffffffffffffffffffffff1614611051576040517f08c379a0000000000000000000000000000000000000000000000000000000008152600401611048906128c7565b60405180910390fd5b8060098190555050565b600560205280600052604060002060009150905080600001805461107e90611e83565b80601f01602080910402602001604051908101604052809291908181526020018280546110aa90611e83565b80156110f75780601f106110cc576101008083540402835291602001916110f7565b820191906000526020600020905b8154815290600101906020018083116110da57829003601f168201915b50505050509080600101549080600201549080600301549080600401805461111e90611e83565b80601f016020809104026020016040519081016040528092919081815260200182805461114a90611e83565b80156111975780601f1061116c57610100808354040283529160200191611197565b820191906000526020600020905b81548152906001019060200180831161117a57829003601f168201915b5050505050908060050160009054906101000a900473ffffffffffffffffffffffffffffffffffffffff16908060060154908060070160009054906101000a900460ff16908060080154905089565b60008054906101000a900473ffffffffffffffffffffffffffffffffffffffff1673ffffffffffffffffffffffffffffffffffffffff163373ffffffffffffffffffffffffffffffffffffffff1614611274576040517f08c379a000000000000000000000000000000000000000000000000000000000815260040161126b906128c7565b60405180910390fd5b6000600260008373ffffffffffffffffffffffffffffffffffffffff1673ffffffffffffffffffffffffffffffffffffffff16815260200190815260200160002060006101000a81548160ff02191690831515021790555050565b60046020528060005260406000206000915090508060000154908060050160009054906101000a900473ffffffffffffffffffffffffffffffffffffffff16908060060160009054906101000a900473ffffffffffffffffffffffffffffffffffffffff169080600701549080600a0160009054906101000a900460ff169080600b0154905086565b60026020528060005260406000206000915054906101000a900460ff1681565b60085481565b600260003373ffffffffffffffffffffffffffffffffffffffff1673ffffffffffffffffffffffffffffffffffffffff16815260200190815260200160002060009054906101000a900460ff1661140a576040517f08c379a000000000000000000000000000000000000000000000000000000000815260040161140190611f6c565b60405180910390fd5b50565b60008054906101000a900473ffffffffffffffffffffffffffffffffffffffff1673ffffffffffffffffffffffffffffffffffffffff163373ffffffffffffffffffffffffffffffffffffffff161461149b576040517f08c379a0000000000000000000000000000000000000000000000000000000008152600401611492906128c7565b60405180910390fd5b8060038190555050565b600260003373ffffffffffffffffffffffffffffffffffffffff1673ffffffffffffffffffffffffffffffffffffffff16815260200190815260200160002060009054906101000a900460ff16611531576040517f08c379a000000000000000000000000000000000000000000000000000000000815260040161152890611f6c565b60405180910390fd5b5050565b6000600260003373ffffffffffffffffffffffffffffffffffffffff1673ffffffffffffffffffffffffffffffffffffffff16815260200190815260200160002060009054906101000a900460ff166115c3576040517f08c379a00000000000000000000000000000000000000000000000000000000081526004016115ba90611f6c565b60405180910390fd5b60076000868152602001908152602001600020600085815260200190815260200160002060009054906101000a900460ff16611634576040517f08c379a000000000000000000000000000000000000000000000000000000000815260040161162b9061295c565b60405180910390fd5b60096000815480929190611647906123c8565b91905055905060016006600083815260200190815260200160002060006101000a81548160ff021916908315150217905550600060056000838152602001908152602001600020905083838260000191826116a39291906127ab565b508581600101819055508481600201819055506116c2868686866117e2565b816003018190555050949350505050565b60008054906101000a900473ffffffffffffffffffffffffffffffffffffffff1673ffffffffffffffffffffffffffffffffffffffff163373ffffffffffffffffffffffffffffffffffffffff1614611761576040517f08c379a0000000000000000000000000000000000000000000000000000000008152600401611758906128c7565b60405180910390fd5b6001600260008373ffffffffffffffffffffffffffffffffffffffff1673ffffffffffffffffffffffffffffffffffffffff16815260200190815260200160002060006101000a81548160ff02191690831515021790555050565b60066020528060005260406000206000915054906101000a900460ff1681565b60095481565b6000848484846040516020016117fb949392919061299d565b604051602081830303815290604052805190602001209050949350505050565b600080fd5b600080fd5b6000819050919050565b61183881611825565b811461184357600080fd5b50565b6000813590506118558161182f565b92915050565b6000602082840312156118715761187061181b565b5b600061187f84828501611846565b91505092915050565b600081519050919050565b600082825260208201905092915050565b60005b838110156118c25780820151818401526020810190506118a7565b60008484015250505050565b6000601f19601f8301169050919050565b60006118ea82611888565b6118f48185611893565b93506119048185602086016118a4565b61190d816118ce565b840191505092915050565b6000602082019050818103600083015261193281846118df565b905092915050565b600080fd5b600080fd5b600080fd5b60008083601f84011261195f5761195e61193a565b5b8235905067ffffffffffffffff81111561197c5761197b61193f565b5b60208301915083600182028301111561199857611997611944565b5b9250929050565b6000819050919050565b6119b28161199f565b81146119bd57600080fd5b50565b6000813590506119cf816119a9565b92915050565b6000806000806000608086880312156119f1576119f061181b565b5b60006119ff88828901611846565b955050602086013567ffffffffffffffff811115611a2057611a1f611820565b5b611a2c88828901611949565b94509450506040611a3f888289016119c0565b9250506060611a5088828901611846565b9150509295509295909350565b611a6681611825565b82525050565b6000602082019050611a816000830184611a5d565b92915050565b60008115159050919050565b611a9c81611a87565b82525050565b6000602082019050611ab76000830184611a93565b92915050565b60008060408385031215611ad457611ad361181b565b5b6000611ae285828601611846565b9250506020611af3858286016119c0565b9150509250929050565b600080600060408486031215611b1657611b1561181b565b5b6000611b2486828701611846565b935050602084013567ffffffffffffffff811115611b4557611b44611820565b5b611b5186828701611949565b92509250509250925092565b600073ffffffffffffffffffffffffffffffffffffffff82169050919050565b6000611b8882611b5d565b9050919050565b611b9881611b7d565b8114611ba357600080fd5b50565b600081359050611bb581611b8f565b92915050565b600060208284031215611bd157611bd061181b565b5b6000611bdf84828501611ba6565b91505092915050565b60008060408385031215611bff57611bfe61181b565b5b6000611c0d858286016119c0565b9250506020611c1e858286016119c0565b9150509250929050565b611c318161199f565b82525050565b611c4081611b7d565b82525050565b6000610120820190508181036000830152611c61818c6118df565b9050611c70602083018b611c28565b611c7d604083018a611c28565b611c8a6060830189611c28565b8181036080830152611c9c81886118df565b9050611cab60a0830187611c37565b611cb860c0830186611a5d565b611cc560e0830185611a93565b611cd3610100830184611a5d565b9a9950505050505050505050565b6000611cec82611b5d565b9050919050565b611cfc81611ce1565b82525050565b600060c082019050611d176000830189611a5d565b611d246020830188611cf3565b611d316040830187611cf3565b611d3e6060830186611a5d565b611d4b6080830185611a93565b611d5860a0830184611c28565b979650505050505050565b60008060008060608587031215611d7d57611d7c61181b565b5b6000611d8b878288016119c0565b9450506020611d9c878288016119c0565b935050604085013567ffffffffffffffff811115611dbd57611dbc611820565b5b611dc987828801611949565b925092505092959194509250565b600082825260208201905092915050565b7f7265717565737420646f6573206e6f7420657869737400000000000000000000600082015250565b6000611e1e601683611dd7565b9150611e2982611de8565b602082019050919050565b60006020820190508181036000830152611e4d81611e11565b9050919050565b7f4e487b7100000000000000000000000000000000000000000000000000000000600052602260045260246000fd5b60006002820490506001821680611e9b57607f821691505b602082108103611eae57611ead611e54565b5b50919050565b7f6f7574707574206e6f742075706c6f6164656400000000000000000000000000600082015250565b6000611eea601383611dd7565b9150611ef582611eb4565b602082019050919050565b60006020820190508181036000830152611f1981611edd565b9050919050565b7f41646472657373206e6f742077686974656c6973746564000000000000000000600082015250565b6000611f56601783611dd7565b9150611f6182611f20565b602082019050919050565b60006020820190508181036000830152611f8581611f49565b9050919050565b7f796f752063616e206368616c6c656e6765206f6e6c79207768656e20736f6d6560008201527f6f6e652075706c6f616420696e636f727265637420726573756c74212054686960208201527f73207265717565737420686173206e6f74206265656e2073657276656420796560408201527f742e20706c656173652075706c6f616420726573756c7420696e73746561642060608201527f6f66206368616c6c656e67652069740000000000000000000000000000000000608082015250565b600061205a608f83611dd7565b915061206582611f8c565b60a082019050919050565b600060208201905081810360008301526120898161204d565b9050919050565b7f74686520726571756573742069732066696e616c697a6564212063616e206e6f60008201527f74206368616c6c656e676520612066696e616c697a6564207265717565737400602082015250565b60006120ec603f83611dd7565b91506120f782612090565b604082019050919050565b6000602082019050818103600083015261211b816120df565b9050919050565b7f7468652072657175657374206973207374696c6c20696e206368616c6c656e6760008201527f652c20706c65617365207761697420666f722074686520656e64206f6620746860208201527f65206368616c6c656e6765000000000000000000000000000000000000000000604082015250565b60006121a4604b83611dd7565b91506121af82612122565b606082019050919050565b600060208201905081810360008301526121d381612197565b9050919050565b600081905092915050565b82818337600083830152505050565b600061220083856121da565b935061220d8385846121e5565b82840190509392505050565b60006122268284866121f4565b91508190509392505050565b60008190508160005260206000209050919050565b6000815461225481611e83565b61225e81866121da565b94506001821660008114612279576001811461228e576122c1565b60ff19831686528115158202860193506122c1565b61229785612232565b60005b838110156122b95781548189015260018201915060208101905061229a565b838801955050505b50505092915050565b60006122d68284612247565b915081905092915050565b7f796f752073686f756c642068617665206120646966666572656e74206f75747060008201527f75742c206f74686572776973652c20796f75206167726565207769746820746860208201527f65207375626d69747465722c20646f206e6f74206368616c6c656e6765206974604082015250565b6000612363606083611dd7565b915061236e826122e1565b606082019050919050565b6000602082019050818103600083015261239281612356565b9050919050565b7f4e487b7100000000000000000000000000000000000000000000000000000000600052601160045260246000fd5b60006123d382611825565b91507fffffffffffffffffffffffffffffffffffffffffffffffffffffffffffffffff820361240557612404612399565b5b600182019050919050565b600061241b82611825565b915061242683611825565b925082820390508181111561243e5761243d612399565b5b92915050565b7f746f2075706c6f616420726571756573742c206d616b6520737572652074686160008201527f74207468652072657175657374206973206e657665722073657276656420627960208201527f206f74686572732e20496620796f75207468696e6b207468652070726f76696460408201527f656420726573756c7420697320696e636f72726563742c20706c65617365206360608201527f68616c6c656e6765206974210000000000000000000000000000000000000000608082015250565b6000612512608c83611dd7565b915061251d82612444565b60a082019050919050565b6000602082019050818103600083015261254181612505565b9050919050565b7f63616e206e6f742075706c6f61642061207a65726f2d6c656e677468206f757460008201527f7075740000000000000000000000000000000000000000000000000000000000602082015250565b60006125a4602383611dd7565b91506125af82612548565b604082019050919050565b600060208201905081810360008301526125d381612597565b9050919050565b600082905092915050565b7f4e487b7100000000000000000000000000000000000000000000000000000000600052604160045260246000fd5b60006020601f8301049050919050565b600082821b905092915050565b6000600883026126617fffffffffffffffffffffffffffffffffffffffffffffffffffffffffffffffff82612624565b61266b8683612624565b95508019841693508086168417925050509392505050565b6000819050919050565b60006126a86126a361269e84611825565b612683565b611825565b9050919050565b6000819050919050565b6126c28361268d565b6126d66126ce826126af565b848454612631565b825550505050565b600090565b6126eb6126de565b6126f68184846126b9565b505050565b5b8181101561271a5761270f6000826126e3565b6001810190506126fc565b5050565b601f82111561275f5761273081612232565b61273984612614565b81016020851015612748578190505b61275c61275485612614565b8301826126fb565b50505b505050565b600082821c905092915050565b600061278260001984600802612764565b1980831691505092915050565b600061279b8383612771565b9150826002028217905092915050565b6127b583836125da565b67ffffffffffffffff8111156127ce576127cd6125e5565b5b6127d88254611e83565b6127e382828561271e565b6000601f8311600181146128125760008415612800578287013590505b61280a858261278f565b865550612872565b601f19841661282086612232565b60005b8281101561284857848901358255600182019150602085019450602081019050612823565b868310156128655784890135612861601f891682612771565b8355505b6001600288020188555050505b50505050505050565b7f4f6e6c79206f776e657200000000000000000000000000000000000000000000600082015250565b60006128b1600a83611dd7565b91506128bc8261287b565b602082019050919050565b600060208201905081810360008301526128e0816128a4565b9050919050565b60006040820190506128fc6000830185611a5d565b6129096020830184611c28565b9392505050565b7f6d6f64656c20646f6573206e6f74206578697374000000000000000000000000600082015250565b6000612946601483611dd7565b915061295182612910565b602082019050919050565b6000602082019050818103600083015261297581612939565b9050919050565b6000819050919050565b6129976129928261199f565b61297c565b82525050565b60006129a98287612986565b6020820191506129b98286612986565b6020820191506129ca8284866121f4565b91508190509594505050505056fea2646970667358221220230ab1402b167425d6050425572346a309069fe8be7352b9102950bbe80c9dff64736f6c63430008140033",
  "linkReferences": {},
  "deployedLinkReferences": {}
}