{
  "_format": "hh-sol-artifact-1",
  "contractName": "SimplePrompt",
  "sourceName": "contracts/SimplePrompt.sol",
  "abi": [
    {
      "inputs": [
        {
          "internalType": "contract IAIOracle",
          "name": "_aiOracle",
          "type": "address"
        }
      ],
      "stateMutability": "nonpayable",
      "type": "constructor"
    },
    {
      "inputs": [
        {
          "internalType": "contract IAIOracle",
          "name": "expected",
          "type": "address"
        },
        {
          "internalType": "contract IAIOracle",
          "name": "found",
          "type": "address"
        }
      ],
      "name": "UnauthorizedCallbackSource",
      "type": "error"
    },
    {
      "anonymous": false,
      "inputs": [
        {
          "indexed": false,
          "internalType": "uint256",
          "name": "requestId",
          "type": "uint256"
        },
        {
          "indexed": false,
          "internalType": "address",
          "name": "sender",
          "type": "address"
        },
        {
          "indexed": false,
          "internalType": "uint256",
          "name": "modelId",
          "type": "uint256"
        },
        {
          "indexed": false,
          "internalType": "string",
          "name": "prompt",
          "type": "string"
        }
      ],
      "name": "promptRequest",
      "type": "event"
    },
    {
      "anonymous": false,
      "inputs": [
        {
          "indexed": false,
          "internalType": "uint256",
          "name": "requestId",
          "type": "uint256"
        },
        {
          "indexed": false,
          "internalType": "string",
          "name": "output",
          "type": "string"
        },
        {
          "indexed": false,
          "internalType": "bytes",
          "name": "callbackData",
          "type": "bytes"
        }
      ],
      "name": "promptsUpdated",
      "type": "event"
    },
    {
      "inputs": [],
      "name": "aiOracle",
      "outputs": [
        {
          "internalType": "contract IAIOracle",
          "name": "",
          "type": "address"
        }
      ],
      "stateMutability": "view",
      "type": "function"
    },
    {
      "inputs": [
        {
          "internalType": "uint256",
          "name": "requestId",
          "type": "uint256"
        },
        {
          "internalType": "bytes",
          "name": "output",
          "type": "bytes"
        },
        {
          "internalType": "bytes",
          "name": "callbackData",
          "type": "bytes"
        }
      ],
      "name": "aiOracleCallback",
      "outputs": [],
      "stateMutability": "nonpayable",
      "type": "function"
    },
    {
      "inputs": [
        {
          "internalType": "uint256",
          "name": "modelId",
          "type": "uint256"
        },
        {
          "internalType": "string",
          "name": "prompt",
          "type": "string"
        }
      ],
      "name": "calculateAIResult",
      "outputs": [],
      "stateMutability": "payable",
      "type": "function"
    },
    {
      "inputs": [
        {
          "internalType": "uint256",
          "name": "",
          "type": "uint256"
        }
      ],
      "name": "callbackGasLimit",
      "outputs": [
        {
          "internalType": "uint64",
          "name": "",
          "type": "uint64"
        }
      ],
      "stateMutability": "view",
      "type": "function"
    },
    {
      "inputs": [
        {
          "internalType": "uint256",
          "name": "modelId",
          "type": "uint256"
        }
      ],
      "name": "estimateFee",
      "outputs": [
        {
          "internalType": "uint256",
          "name": "",
          "type": "uint256"
        }
      ],
      "stateMutability": "view",
      "type": "function"
    },
    {
      "inputs": [
        {
          "internalType": "uint256",
          "name": "requestId",
          "type": "uint256"
        }
      ],
      "name": "isFinalized",
      "outputs": [
        {
          "internalType": "bool",
          "name": "",
          "type": "bool"
        }
      ],
      "stateMutability": "view",
      "type": "function"
    },
    {
      "inputs": [
        {
          "internalType": "uint256",
          "name": "",
          "type": "uint256"
        }
      ],
      "name": "requests",
      "outputs": [
        {
          "internalType": "address",
          "name": "sender",
          "type": "address"
        },
        {
          "internalType": "uint256",
          "name": "modelId",
          "type": "uint256"
        },
        {
          "internalType": "bytes",
          "name": "input",
          "type": "bytes"
        },
        {
          "internalType": "bytes",
          "name": "output",
          "type": "bytes"
        }
      ],
      "stateMutability": "view",
      "type": "function"
    },
    {
      "inputs": [
        {
          "internalType": "uint256",
          "name": "modelId",
          "type": "uint256"
        },
        {
          "internalType": "uint64",
          "name": "gasLimit",
          "type": "uint64"
        }
      ],
      "name": "setCallbackGasLimit",
      "outputs": [],
      "stateMutability": "nonpayable",
      "type": "function"
    }
  ],
  "bytecode": "0x60c06040523480156200001157600080fd5b506040516200126c3803806200126c833981810160405281019062000037919062000126565b808073ffffffffffffffffffffffffffffffffffffffff1660808173ffffffffffffffffffffffffffffffffffffffff1681525050503373ffffffffffffffffffffffffffffffffffffffff1660a08173ffffffffffffffffffffffffffffffffffffffff16815250505062000158565b600080fd5b600073ffffffffffffffffffffffffffffffffffffffff82169050919050565b6000620000da82620000ad565b9050919050565b6000620000ee82620000cd565b9050919050565b6200010081620000e1565b81146200010c57600080fd5b50565b6000815190506200012081620000f5565b92915050565b6000602082840312156200013f576200013e620000a8565b5b60006200014f848285016200010f565b91505092915050565b60805160a0516110cb620001a160003960006103cb015260008181610214015281816103040152818161032a015281816105fc0152818161064f015261074001526110cb6000f3fe60806040526004361061007b5760003560e01c8063813d1e151161004e578063813d1e151461016257806381d12c581461018b578063b0347814146101cb578063fac5d7e1146101f45761007b565b8063127e8e4d1461008057806320f38718146100bd57806331b221cd146100fa57806333727c4d14610125575b600080fd5b34801561008c57600080fd5b506100a760048036038101906100a29190610890565b610210565b6040516100b491906108cc565b60405180910390f35b3480156100c957600080fd5b506100e460048036038101906100df9190610890565b6102db565b6040516100f1919061090a565b60405180910390f35b34801561010657600080fd5b5061010f610302565b60405161011c91906109a4565b60405180910390f35b34801561013157600080fd5b5061014c60048036038101906101479190610890565b610326565b60405161015991906109da565b60405180910390f35b34801561016e57600080fd5b5061018960048036038101906101849190610a21565b6103c9565b005b34801561019757600080fd5b506101b260048036038101906101ad9190610890565b610495565b6040516101c29493929190610b12565b60405180910390f35b3480156101d757600080fd5b506101f260048036038101906101ed9190610bca565b6105f5565b005b61020e60048036038101906102099190610cb5565b6106f3565b005b60007f000000000000000000000000000000000000000000000000000000000000000073ffffffffffffffffffffffffffffffffffffffff1662e1d8d0836001600086815260200190815260200160002060009054906101000a900467ffffffffffffffff166040518363ffffffff1660e01b8152600401610293929190610d46565b602060405180830381865afa1580156102b0573d6000803e3d6000fd5b505050506040513d601f19601f820116820180604052508101906102d49190610d84565b9050919050565b60016020528060005260406000206000915054906101000a900467ffffffffffffffff1681565b7f000000000000000000000000000000000000000000000000000000000000000081565b60007f000000000000000000000000000000000000000000000000000000000000000073ffffffffffffffffffffffffffffffffffffffff166333727c4d836040518263ffffffff1660e01b815260040161038191906108cc565b602060405180830381865afa15801561039e573d6000803e3d6000fd5b505050506040513d601f19601f820116820180604052508101906103c29190610ddd565b9050919050565b7f000000000000000000000000000000000000000000000000000000000000000073ffffffffffffffffffffffffffffffffffffffff163373ffffffffffffffffffffffffffffffffffffffff1614610457576040517f08c379a000000000000000000000000000000000000000000000000000000000815260040161044e90610e67565b60405180910390fd5b806001600084815260200190815260200160002060006101000a81548167ffffffffffffffff021916908367ffffffffffffffff1602179055505050565b60006020528060005260406000206000915090508060000160009054906101000a900473ffffffffffffffffffffffffffffffffffffffff16908060010154908060020180546104e490610eb6565b80601f016020809104026020016040519081016040528092919081815260200182805461051090610eb6565b801561055d5780601f106105325761010080835404028352916020019161055d565b820191906000526020600020905b81548152906001019060200180831161054057829003601f168201915b50505050509080600301805461057290610eb6565b80601f016020809104026020016040519081016040528092919081815260200182805461059e90610eb6565b80156105eb5780601f106105c0576101008083540402835291602001916105eb565b820191906000526020600020905b8154815290600101906020018083116105ce57829003601f168201915b5050505050905084565b60003390507f000000000000000000000000000000000000000000000000000000000000000073ffffffffffffffffffffffffffffffffffffffff168173ffffffffffffffffffffffffffffffffffffffff16146106ac577f0000000000000000000000000000000000000000000000000000000000000000816040517f865c066e0000000000000000000000000000000000000000000000000000000081526004016106a3929190610ee7565b60405180910390fd5b7f06a0e7c58dc0deb40e0fe5d0b6f113abd3b70be188511800ff197ef9b3d9bdf986868686866040516106e3959493929190610f79565b60405180910390a1505050505050565b600082828080601f016020809104026020016040519081016040528093929190818152602001838380828437600081840152601f19601f82011690508083019250505050505050905060007f000000000000000000000000000000000000000000000000000000000000000073ffffffffffffffffffffffffffffffffffffffff16635b95380634878530600160008c815260200190815260200160002060009054906101000a900467ffffffffffffffff166040518663ffffffff1660e01b81526004016107c59493929190610fe8565b60206040518083038185885af11580156107e3573d6000803e3d6000fd5b50505050506040513d601f19601f820116820180604052508101906108089190610d84565b90507fa0faead83d70148ae18b694377f9bef079251342ab90e14af0f9ef68b891269f8133878787604051610841959493929190611047565b60405180910390a15050505050565b600080fd5b600080fd5b6000819050919050565b61086d8161085a565b811461087857600080fd5b50565b60008135905061088a81610864565b92915050565b6000602082840312156108a6576108a5610850565b5b60006108b48482850161087b565b91505092915050565b6108c68161085a565b82525050565b60006020820190506108e160008301846108bd565b92915050565b600067ffffffffffffffff82169050919050565b610904816108e7565b82525050565b600060208201905061091f60008301846108fb565b92915050565b600073ffffffffffffffffffffffffffffffffffffffff82169050919050565b6000819050919050565b600061096a61096561096084610925565b610945565b610925565b9050919050565b600061097c8261094f565b9050919050565b600061098e82610971565b9050919050565b61099e81610983565b82525050565b60006020820190506109b96000830184610995565b92915050565b60008115159050919050565b6109d4816109bf565b82525050565b60006020820190506109ef60008301846109cb565b92915050565b6109fe816108e7565b8114610a0957600080fd5b50565b600081359050610a1b816109f5565b92915050565b60008060408385031215610a3857610a37610850565b5b6000610a468582860161087b565b9250506020610a5785828601610a0c565b9150509250929050565b6000610a6c82610925565b9050919050565b610a7c81610a61565b82525050565b600081519050919050565b600082825260208201905092915050565b60005b83811015610abc578082015181840152602081019050610aa1565b60008484015250505050565b6000601f19601f8301169050919050565b6000610ae482610a82565b610aee8185610a8d565b9350610afe818560208601610a9e565b610b0781610ac8565b840191505092915050565b6000608082019050610b276000830187610a73565b610b3460208301866108bd565b8181036040830152610b468185610ad9565b90508181036060830152610b5a8184610ad9565b905095945050505050565b600080fd5b600080fd5b600080fd5b60008083601f840112610b8a57610b89610b65565b5b8235905067ffffffffffffffff811115610ba757610ba6610b6a565b5b602083019150836001820283011115610bc357610bc2610b6f565b5b9250929050565b600080600080600060608688031215610be657610be5610850565b5b6000610bf48882890161087b565b955050602086013567ffffffffffffffff811115610c1557610c14610855565b5b610c2188828901610b74565b9450945050604086013567ffffffffffffffff811115610c4457610c43610855565b5b610c5088828901610b74565b92509250509295509295909350565b60008083601f840112610c7557610c74610b65565b5b8235905067ffffffffffffffff811115610c9257610c91610b6a565b5b602083019150836001820283011115610cae57610cad610b6f565b5b9250929050565b600080600060408486031215610cce57610ccd610850565b5b6000610cdc8682870161087b565b935050602084013567ffffffffffffffff811115610cfd57610cfc610855565b5b610d0986828701610c5f565b92509250509250925092565b6000610d30610d2b610d26846108e7565b610945565b61085a565b9050919050565b610d4081610d15565b82525050565b6000604082019050610d5b60008301856108bd565b610d686020830184610d37565b9392505050565b600081519050610d7e81610864565b92915050565b600060208284031215610d9a57610d99610850565b5b6000610da884828501610d6f565b91505092915050565b610dba816109bf565b8114610dc557600080fd5b50565b600081519050610dd781610db1565b92915050565b600060208284031215610df357610df2610850565b5b6000610e0184828501610dc8565b91505092915050565b600082825260208201905092915050565b7f4f6e6c79206f776e657200000000000000000000000000000000000000000000600082015250565b6000610e51600a83610e0a565b9150610e5c82610e1b565b602082019050919050565b60006020820190508181036000830152610e8081610e44565b9050919050565b7f4e487b7100000000000000000000000000000000000000000000000000000000600052602260045260246000fd5b60006002820490506001821680610ece57607f821691505b602082108103610ee157610ee0610e87565b5b50919050565b6000604082019050610efc6000830185610995565b610f096020830184610995565b9392505050565b82818337600083830152505050565b6000610f2b8385610e0a565b9350610f38838584610f10565b610f4183610ac8565b840190509392505050565b6000610f588385610a8d565b9350610f65838584610f10565b610f6e83610ac8565b840190509392505050565b6000606082019050610f8e60008301886108bd565b8181036020830152610fa1818688610f1f565b90508181036040830152610fb6818486610f4c565b90509695505050505050565b50565b6000610fd2600083610a8d565b9150610fdd82610fc2565b600082019050919050565b600060a082019050610ffd60008301876108bd565b818103602083015261100f8186610ad9565b905061101e6040830185610a73565b61102b60608301846108fb565b818103608083015261103c81610fc5565b905095945050505050565b600060808201905061105c60008301886108bd565b6110696020830187610a73565b61107660408301866108bd565b8181036060830152611089818486610f1f565b9050969550505050505056fea26469706673582212203c6f5ffe2a2096122af73fa2faacbff796516d3f22ab5e5f87fe68e26e985cbd64736f6c63430008140033",
  "linkReferences": {},
  "deployedLinkReferences": {}
}