{
  "_format": "hh-sol-artifact-1",
  "contractName": "MockAIOracle",
  "sourceName": "contracts/mocks/MockAIOracle.sol",
  "abi": [
    {
      "inputs": [
        {
          "internalType": "address",
          "name": "_server",
          "type": "address"
        },
        {
          "internalType": "address",
          "name": "_opml",
          "type": "address"
        }
      ],
      "stateMutability": "nonpayable",
      "type": "constructor"
    },
    {
      "anonymous": false,
      "inputs": [
        {
          "indexed": true,
          "internalType": "address",
          "name": "account",
          "type": "address"
        },
        {
          "indexed": true,
          "internalType": "uint256",
          "name": "requestId",
          "type": "uint256"
        },
        {
          "indexed": false,
          "internalType": "uint256",
          "name": "modelId",
          "type": "uint256"
        },
        {
          "indexed": false,
          "internalType": "bytes",
          "name": "input",
          "type": "bytes"
        },
        {
          "indexed": false,
          "internalType": "address",
          "name": "callbackContract",
          "type": "address"
        },
        {
          "indexed": false,
          "internalType": "uint64",
          "name": "gasLimit",
          "type": "uint64"
        },
        {
          "indexed": false,
          "internalType": "bytes",
          "name": "callbackData",
          "type": "bytes"
        }
      ],
      "name": "AICallbackRequest",
      "type": "event"
    },
    {
      "anonymous": false,
      "inputs": [
        {
          "indexed": true,
          "internalType": "address",
          "name": "account",
          "type": "address"
        },
        {
          "indexed": true,
          "internalType": "uint256",
          "name": "requestId",
          "type": "uint256"
        },
        {
          "indexed": false,
          "internalType": "address",
          "name": "invoker",
          "type": "address"
        },
        {
          "indexed": false,
          "internalType": "bytes",
          "name": "output",
          "type": "bytes"
        }
      ],
      "name": "AICallbackResult",
      "type": "event"
    },
    {
      "inputs": [
        {
          "internalType": "address",
          "name": "_address",
          "type": "address"
        }
      ],
      "name": "addToBlacklist",
      "outputs": [],
      "stateMutability": "nonpayable",
      "type": "function"
    },
    {
      "inputs": [
        {
          "internalType": "address",
          "name": "",
          "type": "address"
        }
      ],
      "name": "blacklist",
      "outputs": [
        {
          "internalType": "bool",
          "name": "",
          "type": "bool"
        }
      ],
      "stateMutability": "view",
      "type": "function"
    },
    {
      "inputs": [],
      "name": "callbackFunctionSelector",
      "outputs": [
        {
          "internalType": "bytes4",
          "name": "",
          "type": "bytes4"
        }
      ],
      "stateMutability": "pure",
      "type": "function"
    },
    {
      "inputs": [
        {
          "internalType": "uint256",
          "name": "modelId",
          "type": "uint256"
        }
      ],
      "name": "claimModelRevenue",
      "outputs": [],
      "stateMutability": "nonpayable",
      "type": "function"
    },
    {
      "inputs": [
        {
          "internalType": "uint256",
          "name": "modelId",
          "type": "uint256"
        },
        {
          "internalType": "uint256",
          "name": "gasLimit",
          "type": "uint256"
        }
      ],
      "name": "estimateFee",
      "outputs": [
        {
          "internalType": "uint256",
          "name": "",
          "type": "uint256"
        }
      ],
      "stateMutability": "view",
      "type": "function"
    },
    {
      "inputs": [],
      "name": "gasPrice",
      "outputs": [
        {
          "internalType": "uint256",
          "name": "",
          "type": "uint256"
        }
      ],
      "stateMutability": "view",
      "type": "function"
    },
    {
      "inputs": [
        {
          "internalType": "uint256",
          "name": "modelId",
          "type": "uint256"
        }
      ],
      "name": "getModel",
      "outputs": [
        {
          "components": [
            {
              "internalType": "bytes32",
              "name": "modelHash",
              "type": "bytes32"
            },
            {
              "internalType": "bytes32",
              "name": "programHash",
              "type": "bytes32"
            },
            {
              "internalType": "uint256",
              "name": "fee",
              "type": "uint256"
            },
            {
              "internalType": "address",
              "name": "receiver",
              "type": "address"
            },
            {
              "internalType": "uint256",
              "name": "receiverPercentage",
              "type": "uint256"
            },
            {
              "internalType": "uint256",
              "name": "accumulateRevenue",
              "type": "uint256"
            }
          ],
          "internalType": "struct MockAIOracle.ModelData",
          "name": "",
          "type": "tuple"
        }
      ],
      "stateMutability": "view",
      "type": "function"
    },
    {
      "inputs": [
        {
          "internalType": "uint256",
          "name": "requestId",
          "type": "uint256"
        },
        {
          "internalType": "bytes",
          "name": "output",
          "type": "bytes"
        }
      ],
      "name": "invokeCallback",
      "outputs": [],
      "stateMutability": "nonpayable",
      "type": "function"
    },
    {
      "inputs": [
        {
          "internalType": "uint256",
          "name": "requestId",
          "type": "uint256"
        }
      ],
      "name": "isFinalized",
      "outputs": [
        {
          "internalType": "bool",
          "name": "",
          "type": "bool"
        }
      ],
      "stateMutability": "view",
      "type": "function"
    },
    {
      "inputs": [
        {
          "internalType": "uint256",
          "name": "",
          "type": "uint256"
        }
      ],
      "name": "modelIDs",
      "outputs": [
        {
          "internalType": "uint256",
          "name": "",
          "type": "uint256"
        }
      ],
      "stateMutability": "view",
      "type": "function"
    },
    {
      "inputs": [],
      "name": "numberOfModels",
      "outputs": [
        {
          "internalType": "uint256",
          "name": "",
          "type": "uint256"
        }
      ],
      "stateMutability": "view",
      "type": "function"
    },
    {
      "inputs": [],
      "name": "opml",
      "outputs": [
        {
          "internalType": "contract IOpml",
          "name": "",
          "type": "address"
        }
      ],
      "stateMutability": "view",
      "type": "function"
    },
    {
      "inputs": [
        {
          "internalType": "uint256",
          "name": "",
          "type": "uint256"
        }
      ],
      "name": "outputOfRequest",
      "outputs": [
        {
          "internalType": "bytes",
          "name": "",
          "type": "bytes"
        }
      ],
      "stateMutability": "view",
      "type": "function"
    },
    {
      "inputs": [],
      "name": "owner",
      "outputs": [
        {
          "internalType": "address",
          "name": "",
          "type": "address"
        }
      ],
      "stateMutability": "view",
      "type": "function"
    },
    {
      "inputs": [
        {
          "internalType": "address",
          "name": "_address",
          "type": "address"
        }
      ],
      "name": "removeFromBlacklist",
      "outputs": [],
      "stateMutability": "nonpayable",
      "type": "function"
    },
    {
      "inputs": [
        {
          "internalType": "uint256",
          "name": "modelId",
          "type": "uint256"
        }
      ],
      "name": "removeModel",
      "outputs": [],
      "stateMutability": "nonpayable",
      "type": "function"
    },
    {
      "inputs": [
        {
          "internalType": "uint256",
          "name": "modelId",
          "type": "uint256"
        },
        {
          "internalType": "bytes",
          "name": "input",
          "type": "bytes"
        },
        {
          "internalType": "address",
          "name": "callbackContract",
          "type": "address"
        },
        {
          "internalType": "uint64",
          "name": "gasLimit",
          "type": "uint64"
        },
        {
          "internalType": "bytes",
          "name": "callbackData",
          "type": "bytes"
        }
      ],
      "name": "requestCallback",
      "outputs": [
        {
          "internalType": "uint256",
          "name": "",
          "type": "uint256"
        }
      ],
      "stateMutability": "payable",
      "type": "function"
    },
    {
      "inputs": [
        {
          "internalType": "uint256",
          "name": "",
          "type": "uint256"
        }
      ],
      "name": "requests",
      "outputs": [
        {
          "internalType": "address",
          "name": "account",
          "type": "address"
        },
        {
          "internalType": "uint256",
          "name": "requestId",
          "type": "uint256"
        },
        {
          "internalType": "uint256",
          "name": "modelId",
          "type": "uint256"
        },
        {
          "internalType": "bytes",
          "name": "input",
          "type": "bytes"
        },
        {
          "internalType": "address",
          "name": "callbackContract",
          "type": "address"
        },
        {
          "internalType": "uint64",
          "name": "gasLimit",
          "type": "uint64"
        },
        {
          "internalType": "bytes",
          "name": "callbackData",
          "type": "bytes"
        }
      ],
      "stateMutability": "view",
      "type": "function"
    },
    {
      "inputs": [],
      "name": "resetGasPrice",
      "outputs": [],
      "stateMutability": "nonpayable",
      "type": "function"
    },
    {
      "inputs": [],
      "name": "resetModelIDs",
      "outputs": [],
      "stateMutability": "nonpayable",
      "type": "function"
    },
    {
      "inputs": [],
      "name": "server",
      "outputs": [
        {
          "internalType": "address",
          "name": "",
          "type": "address"
        }
      ],
      "stateMutability": "view",
      "type": "function"
    },
    {
      "inputs": [
        {
          "internalType": "uint256",
          "name": "modelId",
          "type": "uint256"
        },
        {
          "internalType": "uint256",
          "name": "_fee",
          "type": "uint256"
        }
      ],
      "name": "setModelFee",
      "outputs": [],
      "stateMutability": "nonpayable",
      "type": "function"
    },
    {
      "inputs": [
        {
          "internalType": "uint256",
          "name": "modelId",
          "type": "uint256"
        },
        {
          "internalType": "address",
          "name": "receiver",
          "type": "address"
        }
      ],
      "name": "setModelReceiver",
      "outputs": [],
      "stateMutability": "nonpayable",
      "type": "function"
    },
    {
      "inputs": [
        {
          "internalType": "uint256",
          "name": "modelId",
          "type": "uint256"
        },
        {
          "internalType": "uint256",
          "name": "receiverPercentage",
          "type": "uint256"
        }
      ],
      "name": "setModelReceiverPercentage",
      "outputs": [],
      "stateMutability": "nonpayable",
      "type": "function"
    },
    {
      "inputs": [
        {
          "internalType": "uint256",
          "name": "modelId",
          "type": "uint256"
        },
        {
          "internalType": "bytes32",
          "name": "modelHash",
          "type": "bytes32"
        },
        {
          "internalType": "bytes32",
          "name": "programHash",
          "type": "bytes32"
        },
        {
          "internalType": "uint256",
          "name": "fee",
          "type": "uint256"
        },
        {
          "internalType": "address",
          "name": "receiver",
          "type": "address"
        },
        {
          "internalType": "uint256",
          "name": "receiverPercentage",
          "type": "uint256"
        }
      ],
      "name": "updateModel",
      "outputs": [],
      "stateMutability": "nonpayable",
      "type": "function"
    },
    {
      "inputs": [
        {
          "internalType": "uint256",
          "name": "requestId",
          "type": "uint256"
        }
      ],
      "name": "updateResult",
      "outputs": [],
      "stateMutability": "nonpayable",
      "type": "function"
    },
    {
      "inputs": [
        {
          "internalType": "uint256",
          "name": "modelId",
          "type": "uint256"
        },
        {
          "internalType": "bytes32",
          "name": "modelHash",
          "type": "bytes32"
        },
        {
          "internalType": "bytes32",
          "name": "programHash",
          "type": "bytes32"
        },
        {
          "internalType": "uint256",
          "name": "fee",
          "type": "uint256"
        },
        {
          "internalType": "address",
          "name": "receiver",
          "type": "address"
        },
        {
          "internalType": "uint256",
          "name": "receiverPercentage",
          "type": "uint256"
        }
      ],
      "name": "uploadModel",
      "outputs": [],
      "stateMutability": "nonpayable",
      "type": "function"
    },
    {
      "inputs": [],
      "name": "withdraw",
      "outputs": [],
      "stateMutability": "nonpayable",
      "type": "function"
    }
  ],
  "bytecode": "0x60806040523480156200001157600080fd5b50604051620041533803806200415383398181016040528101906200003791906200016b565b806000806101000a81548173ffffffffffffffffffffffffffffffffffffffff021916908373ffffffffffffffffffffffffffffffffffffffff16021790555033600160006101000a81548173ffffffffffffffffffffffffffffffffffffffff021916908373ffffffffffffffffffffffffffffffffffffffff16021790555081600260006101000a81548173ffffffffffffffffffffffffffffffffffffffff021916908373ffffffffffffffffffffffffffffffffffffffff1602179055505050620001b2565b600080fd5b600073ffffffffffffffffffffffffffffffffffffffff82169050919050565b6000620001338262000106565b9050919050565b620001458162000126565b81146200015157600080fd5b50565b60008151905062000165816200013a565b92915050565b6000806040838503121562000185576200018462000101565b5b6000620001958582860162000154565b9250506020620001a88582860162000154565b9150509250929050565b613f9180620001c26000396000f3fe6080604052600436106101b55760003560e01c80636c124d74116100ec578063ace04ec71161008a578063e857f74711610064578063e857f747146105e7578063f9f92be414610612578063fd922a421461064f578063fe173b971461067a576101b5565b8063ace04ec71461056a578063b109752314610581578063b70b5ccc146105be576101b5565b806381d12c58116100c657806381d12c58146104a857806382dcc26d146104eb5780638da5cb5b146105145780639a6a794f1461053f576101b5565b80636c124d741461042b5780636d36169414610454578063754592b214610491576101b5565b8063537df3b6116101595780635638101b116101335780635638101b146103805780635b953806146103a9578063699ecb83146103d95780636b0641a314610402576101b5565b8063537df3b61461030557806354c33b101461032e57806355d15d9314610357576101b5565b8063349c413611610195578063349c41361461025d5780633ccfd60b1461029a57806344337ea1146102b157806349163731146102da576101b5565b806277f244146101ba578062e1d8d0146101e357806333727c4d14610220575b600080fd5b3480156101c657600080fd5b506101e160048036038101906101dc919061287d565b6106a5565b005b3480156101ef57600080fd5b5061020a600480360381019061020591906128bd565b6107db565b604051610217919061290c565b60405180910390f35b34801561022c57600080fd5b5061024760048036038101906102429190612927565b61087c565b604051610254919061296f565b60405180910390f35b34801561026957600080fd5b50610284600480360381019061027f9190612927565b610906565b604051610291919061290c565b60405180910390f35b3480156102a657600080fd5b506102af61092a565b005b3480156102bd57600080fd5b506102d860048036038101906102d3919061298a565b610b04565b005b3480156102e657600080fd5b506102ef610bd4565b6040516102fc91906129f2565b60405180910390f35b34801561031157600080fd5b5061032c6004803603810190610327919061298a565b610be3565b005b34801561033a57600080fd5b5061035560048036038101906103509190612a43565b610cb3565b005b34801561036357600080fd5b5061037e60048036038101906103799190612b35565b610e55565b005b34801561038c57600080fd5b506103a760048036038101906103a29190612927565b6111e5565b005b6103c360048036038101906103be9190612d16565b611322565b6040516103d0919061290c565b60405180910390f35b3480156103e557600080fd5b5061040060048036038101906103fb91906128bd565b6115d1565b005b34801561040e57600080fd5b5061042960048036038101906104249190612927565b611711565b005b34801561043757600080fd5b50610452600480360381019061044d91906128bd565b6118e6565b005b34801561046057600080fd5b5061047b60048036038101906104769190612927565b6119e2565b6040516104889190612e71565b60405180910390f35b34801561049d57600080fd5b506104a6611aff565b005b3480156104b457600080fd5b506104cf60048036038101906104ca9190612927565b611b7e565b6040516104e29796959493929190612f29565b60405180910390f35b3480156104f757600080fd5b50610512600480360381019061050d9190612927565b611d24565b005b34801561052057600080fd5b50610529612089565b6040516105369190612fa6565b60405180910390f35b34801561054b57600080fd5b506105546120b3565b6040516105619190613020565b60405180910390f35b34801561057657600080fd5b5061057f6120dc565b005b34801561058d57600080fd5b506105a860048036038101906105a39190612927565b612161565b6040516105b5919061303b565b60405180910390f35b3480156105ca57600080fd5b506105e560048036038101906105e09190612a43565b612201565b005b3480156105f357600080fd5b506105fc61246b565b604051610609919061290c565b60405180910390f35b34801561061e57600080fd5b506106396004803603810190610634919061298a565b612478565b604051610646919061296f565b60405180910390f35b34801561065b57600080fd5b50610664612498565b6040516106719190612fa6565b60405180910390f35b34801561068657600080fd5b5061068f6124c2565b60405161069c919061290c565b60405180910390f35b6106ad612089565b73ffffffffffffffffffffffffffffffffffffffff163373ffffffffffffffffffffffffffffffffffffffff161461071a576040517f08c379a0000000000000000000000000000000000000000000000000000000008152600401610711906130ba565b60405180910390fd5b816007600082815260200190815260200160002060009054906101000a900460ff1661077b576040517f08c379a000000000000000000000000000000000000000000000000000000000815260040161077290613126565b60405180910390fd5b6000600660008581526020019081526020016000209050828160030160006101000a81548173ffffffffffffffffffffffffffffffffffffffff021916908373ffffffffffffffffffffffffffffffffffffffff16021790555050505050565b6000826007600082815260200190815260200160002060009054906101000a900460ff1661083e576040517f08c379a000000000000000000000000000000000000000000000000000000000815260040161083590613126565b60405180910390fd5b6000600660008681526020019081526020016000209050836008546108639190613175565b816002015461087291906131b7565b9250505092915050565b60006108866120b3565b73ffffffffffffffffffffffffffffffffffffffff166333727c4d836040518263ffffffff1660e01b81526004016108be919061290c565b602060405180830381865afa1580156108db573d6000803e3d6000fd5b505050506040513d601f19601f820116820180604052508101906108ff9190613217565b9050919050565b6009818154811061091657600080fd5b906000526020600020016000915090505481565b610932612089565b73ffffffffffffffffffffffffffffffffffffffff163373ffffffffffffffffffffffffffffffffffffffff161461099f576040517f08c379a0000000000000000000000000000000000000000000000000000000008152600401610996906130ba565b60405180910390fd5b600080600090505b600980549050811015610aa8576000600982815481106109ca576109c9613244565b5b906000526020600020015490506000600660008381526020019081526020016000206040518060c00160405290816000820154815260200160018201548152602001600282015481526020016003820160009054906101000a900473ffffffffffffffffffffffffffffffffffffffff1673ffffffffffffffffffffffffffffffffffffffff1673ffffffffffffffffffffffffffffffffffffffff1681526020016004820154815260200160058201548152505090508060a0015184610a9191906131b7565b935050508080610aa090613273565b9150506109a7565b5060008147610ab791906132bb565b90503373ffffffffffffffffffffffffffffffffffffffff166108fc829081150290604051600060405180830381858888f19350505050158015610aff573d6000803e3d6000fd5b505050565b610b0c612089565b73ffffffffffffffffffffffffffffffffffffffff163373ffffffffffffffffffffffffffffffffffffffff1614610b79576040517f08c379a0000000000000000000000000000000000000000000000000000000008152600401610b70906130ba565b60405180910390fd5b6001600360008373ffffffffffffffffffffffffffffffffffffffff1673ffffffffffffffffffffffffffffffffffffffff16815260200190815260200160002060006101000a81548160ff02191690831515021790555050565b600063b034781460e01b905090565b610beb612089565b73ffffffffffffffffffffffffffffffffffffffff163373ffffffffffffffffffffffffffffffffffffffff1614610c58576040517f08c379a0000000000000000000000000000000000000000000000000000000008152600401610c4f906130ba565b60405180910390fd5b6000600360008373ffffffffffffffffffffffffffffffffffffffff1673ffffffffffffffffffffffffffffffffffffffff16815260200190815260200160002060006101000a81548160ff02191690831515021790555050565b610cbb612089565b73ffffffffffffffffffffffffffffffffffffffff163373ffffffffffffffffffffffffffffffffffffffff1614610d28576040517f08c379a0000000000000000000000000000000000000000000000000000000008152600401610d1f906130ba565b60405180910390fd5b856007600082815260200190815260200160002060009054906101000a900460ff16610d89576040517f08c379a0000000000000000000000000000000000000000000000000000000008152600401610d8090613126565b60405180910390fd5b6064821115610dcd576040517f08c379a0000000000000000000000000000000000000000000000000000000008152600401610dc49061333b565b60405180910390fd5b6000600660008981526020019081526020016000209050868160000181905550858160010181905550848160020181905550838160030160006101000a81548173ffffffffffffffffffffffffffffffffffffffff021916908373ffffffffffffffffffffffffffffffffffffffff1602179055508281600401819055505050505050505050565b610e5d612498565b73ffffffffffffffffffffffffffffffffffffffff163373ffffffffffffffffffffffffffffffffffffffff1614610eca576040517f08c379a0000000000000000000000000000000000000000000000000000000008152600401610ec1906133a7565b60405180910390fd5b6000600460008581526020019081526020016000209050610ee96120b3565b73ffffffffffffffffffffffffffffffffffffffff1663480f07c88585856040518463ffffffff1660e01b8152600401610f25939291906133f4565b600060405180830381600087803b158015610f3f57600080fd5b505af1158015610f53573d6000803e3d6000fd5b50505050600073ffffffffffffffffffffffffffffffffffffffff168160040160009054906101000a900473ffffffffffffffffffffffffffffffffffffffff1673ffffffffffffffffffffffffffffffffffffffff161461113e576000610fb9610bd4565b8260010154858585600501604051602401610fd7949392919061351f565b604051602081830303815290604052907bffffffffffffffffffffffffffffffffffffffffffffffffffffffff19166020820180517bffffffffffffffffffffffffffffffffffffffffffffffffffffffff838183161783525050505090506000808360040160009054906101000a900473ffffffffffffffffffffffffffffffffffffffff1673ffffffffffffffffffffffffffffffffffffffff168460040160149054906101000a900467ffffffffffffffff1667ffffffffffffffff16846040516110a591906135a2565b60006040518083038160008787f1925050503d80600081146110e3576040519150601f19603f3d011682016040523d82523d6000602084013e6110e8565b606091505b50915091508161112d576040517f08c379a000000000000000000000000000000000000000000000000000000000815260040161112490613605565b60405180910390fd5b8161113a57805160208201fd5b5050505b82826005600087815260200190815260200160002091826111609291906137bd565b50838160000160009054906101000a900473ffffffffffffffffffffffffffffffffffffffff1673ffffffffffffffffffffffffffffffffffffffff167fb7b413554c4e94c80cfbb175a0e4727f2f425d29b980195c49dac293c2914fc03386866040516111d09392919061388d565b60405180910390a33a60088190555050505050565b806007600082815260200190815260200160002060009054906101000a900460ff16611246576040517f08c379a000000000000000000000000000000000000000000000000000000000815260040161123d90613126565b60405180910390fd5b600060066000848152602001908152602001600020905060008160050154116112a4576040517f08c379a000000000000000000000000000000000000000000000000000000000815260040161129b9061390b565b60405180910390fd5b8060030160009054906101000a900473ffffffffffffffffffffffffffffffffffffffff1673ffffffffffffffffffffffffffffffffffffffff166108fc82600501549081150290604051600060405180830381858888f19350505050158015611312573d6000803e3d6000fd5b5060008160050181905550505050565b6000611330868686866124c8565b6000600660008881526020019081526020016000206040518060c00160405290816000820154815260200160018201548152602001600282015481526020016003820160009054906101000a900473ffffffffffffffffffffffffffffffffffffffff1673ffffffffffffffffffffffffffffffffffffffff1673ffffffffffffffffffffffffffffffffffffffff16815260200160048201548152602001600582015481525050905060006113e46120b3565b73ffffffffffffffffffffffffffffffffffffffff1663c61b0b76836000015184602001518a6040518463ffffffff1660e01b81526004016114289392919061393a565b6020604051808303816000875af1158015611447573d6000803e3d6000fd5b505050506040513d601f19601f8201168201806040525081019061146b919061398d565b90506000600460008381526020019081526020016000209050338160000160006101000a81548173ffffffffffffffffffffffffffffffffffffffff021916908373ffffffffffffffffffffffffffffffffffffffff160217905550818160010181905550888160020181905550878160030190816114ea91906139ba565b50868160040160006101000a81548173ffffffffffffffffffffffffffffffffffffffff021916908373ffffffffffffffffffffffffffffffffffffffff160217905550858160040160146101000a81548167ffffffffffffffff021916908367ffffffffffffffff1602179055508481600501908161156a91906139ba565b50813373ffffffffffffffffffffffffffffffffffffffff167f849aa5adc3bf6a75cb08afbf31d88d1528c274e5d84e3d4355d23d8e9ebd649b8b8b8b8b8b6040516115ba959493929190613a8c565b60405180910390a381935050505095945050505050565b6115d9612089565b73ffffffffffffffffffffffffffffffffffffffff163373ffffffffffffffffffffffffffffffffffffffff1614611646576040517f08c379a000000000000000000000000000000000000000000000000000000000815260040161163d906130ba565b60405180910390fd5b816007600082815260200190815260200160002060009054906101000a900460ff166116a7576040517f08c379a000000000000000000000000000000000000000000000000000000000815260040161169e90613126565b60405180910390fd5b60648211156116eb576040517f08c379a00000000000000000000000000000000000000000000000000000000081526004016116e29061333b565b60405180910390fd5b600060066000858152602001908152602001600020905082816004018190555050505050565b611719612089565b73ffffffffffffffffffffffffffffffffffffffff163373ffffffffffffffffffffffffffffffffffffffff1614611786576040517f08c379a000000000000000000000000000000000000000000000000000000000815260040161177d906130ba565b60405180910390fd5b806007600082815260200190815260200160002060009054906101000a900460ff166117e7576040517f08c379a00000000000000000000000000000000000000000000000000000000081526004016117de90613126565b60405180910390fd5b60006007600084815260200190815260200160002060006101000a81548160ff02191690831515021790555060005b6009805490508110156118e15760006009828154811061183957611838613244565b5b906000526020600020015490508381036118cd576009600160098054905061186191906132bb565b8154811061187257611871613244565b5b90600052602060002001546009838154811061189157611890613244565b5b906000526020600020018190555060098054806118b1576118b0613aed565b5b60019003818190600052602060002001600090559055506118e1565b5080806118d990613273565b915050611816565b505050565b6118ee612089565b73ffffffffffffffffffffffffffffffffffffffff163373ffffffffffffffffffffffffffffffffffffffff161461195b576040517f08c379a0000000000000000000000000000000000000000000000000000000008152600401611952906130ba565b60405180910390fd5b816007600082815260200190815260200160002060009054906101000a900460ff166119bc576040517f08c379a00000000000000000000000000000000000000000000000000000000081526004016119b390613126565b60405180910390fd5b600060066000858152602001908152602001600020905082816002018190555050505050565b6119ea612745565b816007600082815260200190815260200160002060009054906101000a900460ff16611a4b576040517f08c379a0000000000000000000000000000000000000000000000000000000008152600401611a4290613126565b60405180910390fd5b6000600660008581526020019081526020016000206040518060c00160405290816000820154815260200160018201548152602001600282015481526020016003820160009054906101000a900473ffffffffffffffffffffffffffffffffffffffff1673ffffffffffffffffffffffffffffffffffffffff1673ffffffffffffffffffffffffffffffffffffffff1681526020016004820154815260200160058201548152505090508092505050919050565b611b07612089565b73ffffffffffffffffffffffffffffffffffffffff163373ffffffffffffffffffffffffffffffffffffffff1614611b74576040517f08c379a0000000000000000000000000000000000000000000000000000000008152600401611b6b906130ba565b60405180910390fd5b6000600881905550565b60046020528060005260406000206000915090508060000160009054906101000a900473ffffffffffffffffffffffffffffffffffffffff1690806001015490806002015490806003018054611bd390613455565b80601f0160208091040260200160405190810160405280929190818152602001828054611bff90613455565b8015611c4c5780601f10611c2157610100808354040283529160200191611c4c565b820191906000526020600020905b815481529060010190602001808311611c2f57829003601f168201915b5050505050908060040160009054906101000a900473ffffffffffffffffffffffffffffffffffffffff16908060040160149054906101000a900467ffffffffffffffff1690806005018054611ca190613455565b80601f0160208091040260200160405190810160405280929190818152602001828054611ccd90613455565b8015611d1a5780601f10611cef57610100808354040283529160200191611d1a565b820191906000526020600020905b815481529060010190602001808311611cfd57829003601f168201915b5050505050905087565b60006004600083815260200190815260200160002090506000611d456120b3565b73ffffffffffffffffffffffffffffffffffffffff166317861f87846040518263ffffffff1660e01b8152600401611d7d919061290c565b600060405180830381865afa158015611d9a573d6000803e3d6000fd5b505050506040513d6000823e3d601f19601f82011682018060405250810190611dc39190613b8c565b90506000815111611e09576040517f08c379a0000000000000000000000000000000000000000000000000000000008152600401611e0090613c21565b60405180910390fd5b600073ffffffffffffffffffffffffffffffffffffffff168260040160009054906101000a900473ffffffffffffffffffffffffffffffffffffffff1673ffffffffffffffffffffffffffffffffffffffff1614611fee576000611e6b610bd4565b83600101548385600501604051602401611e8793929190613c41565b604051602081830303815290604052907bffffffffffffffffffffffffffffffffffffffffffffffffffffffff19166020820180517bffffffffffffffffffffffffffffffffffffffffffffffffffffffff838183161783525050505090506000808460040160009054906101000a900473ffffffffffffffffffffffffffffffffffffffff1673ffffffffffffffffffffffffffffffffffffffff168560040160149054906101000a900467ffffffffffffffff1667ffffffffffffffff1684604051611f5591906135a2565b60006040518083038160008787f1925050503d8060008114611f93576040519150601f19603f3d011682016040523d82523d6000602084013e611f98565b606091505b509150915081611fdd576040517f08c379a0000000000000000000000000000000000000000000000000000000008152600401611fd490613605565b60405180910390fd5b81611fea57805160208201fd5b5050505b8060056000858152602001908152602001600020908161200e91906139ba565b50828260000160009054906101000a900473ffffffffffffffffffffffffffffffffffffffff1673ffffffffffffffffffffffffffffffffffffffff167fb7b413554c4e94c80cfbb175a0e4727f2f425d29b980195c49dac293c2914fc0338460405161207c929190613c86565b60405180910390a3505050565b6000600160009054906101000a900473ffffffffffffffffffffffffffffffffffffffff16905090565b60008060009054906101000a900473ffffffffffffffffffffffffffffffffffffffff16905090565b6120e4612089565b73ffffffffffffffffffffffffffffffffffffffff163373ffffffffffffffffffffffffffffffffffffffff1614612151576040517f08c379a0000000000000000000000000000000000000000000000000000000008152600401612148906130ba565b60405180910390fd5b6009600061215f9190612797565b565b6005602052806000526040600020600091509050805461218090613455565b80601f01602080910402602001604051908101604052809291908181526020018280546121ac90613455565b80156121f95780601f106121ce576101008083540402835291602001916121f9565b820191906000526020600020905b8154815290600101906020018083116121dc57829003601f168201915b505050505081565b612209612089565b73ffffffffffffffffffffffffffffffffffffffff163373ffffffffffffffffffffffffffffffffffffffff1614612276576040517f08c379a000000000000000000000000000000000000000000000000000000000815260040161226d906130ba565b60405180910390fd5b6007600087815260200190815260200160002060009054906101000a900460ff16156122d7576040517f08c379a00000000000000000000000000000000000000000000000000000000081526004016122ce90613d02565b60405180910390fd5b606481111561231b576040517f08c379a00000000000000000000000000000000000000000000000000000000081526004016123129061333b565b60405180910390fd5b60016007600088815260200190815260200160002060006101000a81548160ff02191690831515021790555060098690806001815401808255809150506001900390600052602060002001600090919091909150556000600660008881526020019081526020016000209050858160000181905550848160010181905550838160020181905550828160030160006101000a81548173ffffffffffffffffffffffffffffffffffffffff021916908373ffffffffffffffffffffffffffffffffffffffff1602179055508181600401819055506123f66120b3565b73ffffffffffffffffffffffffffffffffffffffff16635c3d151987876040518363ffffffff1660e01b8152600401612430929190613d22565b600060405180830381600087803b15801561244a57600080fd5b505af115801561245e573d6000803e3d6000fd5b5050505050505050505050565b6000600980549050905090565b60036020528060005260406000206000915054906101000a900460ff1681565b6000600260009054906101000a900473ffffffffffffffffffffffffffffffffffffffff16905090565b60085481565b836007600082815260200190815260200160002060009054906101000a900460ff16612529576040517f08c379a000000000000000000000000000000000000000000000000000000000815260040161252090613126565b60405180910390fd5b82600360008273ffffffffffffffffffffffffffffffffffffffff1673ffffffffffffffffffffffffffffffffffffffff16815260200190815260200160002060009054906101000a900460ff16156125b7576040517f08c379a00000000000000000000000000000000000000000000000000000000081526004016125ae90613d97565b60405180910390fd5b60006006600088815260200190815260200160002090508367ffffffffffffffff166008546125e69190613175565b81600201546125f591906131b7565b341015612637576040517f08c379a000000000000000000000000000000000000000000000000000000000815260040161262e90613e03565b60405180910390fd5b60648160040154826002015461264d9190613175565b6126579190613e52565b81600501600082825461266a91906131b7565b9250508190555060008651116126b5576040517f08c379a00000000000000000000000000000000000000000000000000000000081526004016126ac90613ecf565b60405180910390fd5b60008073ffffffffffffffffffffffffffffffffffffffff168673ffffffffffffffffffffffffffffffffffffffff1614905060008567ffffffffffffffff161415158115151461273b576040517f08c379a000000000000000000000000000000000000000000000000000000000815260040161273290613f3b565b60405180910390fd5b5050505050505050565b6040518060c00160405280600080191681526020016000801916815260200160008152602001600073ffffffffffffffffffffffffffffffffffffffff16815260200160008152602001600081525090565b50805460008255906000526020600020908101906127b591906127b8565b50565b5b808211156127d15760008160009055506001016127b9565b5090565b6000604051905090565b600080fd5b600080fd5b6000819050919050565b6127fc816127e9565b811461280757600080fd5b50565b600081359050612819816127f3565b92915050565b600073ffffffffffffffffffffffffffffffffffffffff82169050919050565b600061284a8261281f565b9050919050565b61285a8161283f565b811461286557600080fd5b50565b60008135905061287781612851565b92915050565b60008060408385031215612894576128936127df565b5b60006128a28582860161280a565b92505060206128b385828601612868565b9150509250929050565b600080604083850312156128d4576128d36127df565b5b60006128e28582860161280a565b92505060206128f38582860161280a565b9150509250929050565b612906816127e9565b82525050565b600060208201905061292160008301846128fd565b92915050565b60006020828403121561293d5761293c6127df565b5b600061294b8482850161280a565b91505092915050565b60008115159050919050565b61296981612954565b82525050565b60006020820190506129846000830184612960565b92915050565b6000602082840312156129a05761299f6127df565b5b60006129ae84828501612868565b91505092915050565b60007fffffffff0000000000000000000000000000000000000000000000000000000082169050919050565b6129ec816129b7565b82525050565b6000602082019050612a0760008301846129e3565b92915050565b6000819050919050565b612a2081612a0d565b8114612a2b57600080fd5b50565b600081359050612a3d81612a17565b92915050565b60008060008060008060c08789031215612a6057612a5f6127df565b5b6000612a6e89828a0161280a565b9650506020612a7f89828a01612a2e565b9550506040612a9089828a01612a2e565b9450506060612aa189828a0161280a565b9350506080612ab289828a01612868565b92505060a0612ac389828a0161280a565b9150509295509295509295565b600080fd5b600080fd5b600080fd5b60008083601f840112612af557612af4612ad0565b5b8235905067ffffffffffffffff811115612b1257612b11612ad5565b5b602083019150836001820283011115612b2e57612b2d612ada565b5b9250929050565b600080600060408486031215612b4e57612b4d6127df565b5b6000612b5c8682870161280a565b935050602084013567ffffffffffffffff811115612b7d57612b7c6127e4565b5b612b8986828701612adf565b92509250509250925092565b600080fd5b6000601f19601f8301169050919050565b7f4e487b7100000000000000000000000000000000000000000000000000000000600052604160045260246000fd5b612be382612b9a565b810181811067ffffffffffffffff82111715612c0257612c01612bab565b5b80604052505050565b6000612c156127d5565b9050612c218282612bda565b919050565b600067ffffffffffffffff821115612c4157612c40612bab565b5b612c4a82612b9a565b9050602081019050919050565b82818337600083830152505050565b6000612c79612c7484612c26565b612c0b565b905082815260208101848484011115612c9557612c94612b95565b5b612ca0848285612c57565b509392505050565b600082601f830112612cbd57612cbc612ad0565b5b8135612ccd848260208601612c66565b91505092915050565b600067ffffffffffffffff82169050919050565b612cf381612cd6565b8114612cfe57600080fd5b50565b600081359050612d1081612cea565b92915050565b600080600080600060a08688031215612d3257612d316127df565b5b6000612d408882890161280a565b955050602086013567ffffffffffffffff811115612d6157612d606127e4565b5b612d6d88828901612ca8565b9450506040612d7e88828901612868565b9350506060612d8f88828901612d01565b925050608086013567ffffffffffffffff811115612db057612daf6127e4565b5b612dbc88828901612ca8565b9150509295509295909350565b612dd281612a0d565b82525050565b612de1816127e9565b82525050565b612df08161283f565b82525050565b60c082016000820151612e0c6000850182612dc9565b506020820151612e1f6020850182612dc9565b506040820151612e326040850182612dd8565b506060820151612e456060850182612de7565b506080820151612e586080850182612dd8565b5060a0820151612e6b60a0850182612dd8565b50505050565b600060c082019050612e866000830184612df6565b92915050565b612e958161283f565b82525050565b600081519050919050565b600082825260208201905092915050565b60005b83811015612ed5578082015181840152602081019050612eba565b60008484015250505050565b6000612eec82612e9b565b612ef68185612ea6565b9350612f06818560208601612eb7565b612f0f81612b9a565b840191505092915050565b612f2381612cd6565b82525050565b600060e082019050612f3e600083018a612e8c565b612f4b60208301896128fd565b612f5860408301886128fd565b8181036060830152612f6a8187612ee1565b9050612f796080830186612e8c565b612f8660a0830185612f1a565b81810360c0830152612f988184612ee1565b905098975050505050505050565b6000602082019050612fbb6000830184612e8c565b92915050565b6000819050919050565b6000612fe6612fe1612fdc8461281f565b612fc1565b61281f565b9050919050565b6000612ff882612fcb565b9050919050565b600061300a82612fed565b9050919050565b61301a81612fff565b82525050565b60006020820190506130356000830184613011565b92915050565b600060208201905081810360008301526130558184612ee1565b905092915050565b600082825260208201905092915050565b7f4e6f7420746865206f776e657200000000000000000000000000000000000000600082015250565b60006130a4600d8361305d565b91506130af8261306e565b602082019050919050565b600060208201905081810360008301526130d381613097565b9050919050565b7f6d6f64656c20646f6573206e6f74206578697374000000000000000000000000600082015250565b600061311060148361305d565b915061311b826130da565b602082019050919050565b6000602082019050818103600083015261313f81613103565b9050919050565b7f4e487b7100000000000000000000000000000000000000000000000000000000600052601160045260246000fd5b6000613180826127e9565b915061318b836127e9565b9250828202613199816127e9565b915082820484148315176131b0576131af613146565b5b5092915050565b60006131c2826127e9565b91506131cd836127e9565b92508282019050808211156131e5576131e4613146565b5b92915050565b6131f481612954565b81146131ff57600080fd5b50565b600081519050613211816131eb565b92915050565b60006020828403121561322d5761322c6127df565b5b600061323b84828501613202565b91505092915050565b7f4e487b7100000000000000000000000000000000000000000000000000000000600052603260045260246000fd5b600061327e826127e9565b91507fffffffffffffffffffffffffffffffffffffffffffffffffffffffffffffffff82036132b0576132af613146565b5b600182019050919050565b60006132c6826127e9565b91506132d1836127e9565b92508282039050818111156132e9576132e8613146565b5b92915050565b7f70657263656e746167652073686f756c64206265203c3d203130300000000000600082015250565b6000613325601b8361305d565b9150613330826132ef565b602082019050919050565b6000602082019050818103600083015261335481613318565b9050919050565b7f4f6e6c7920736572766572000000000000000000000000000000000000000000600082015250565b6000613391600b8361305d565b915061339c8261335b565b602082019050919050565b600060208201905081810360008301526133c081613384565b9050919050565b60006133d38385612ea6565b93506133e0838584612c57565b6133e983612b9a565b840190509392505050565b600060408201905061340960008301866128fd565b818103602083015261341c8184866133c7565b9050949350505050565b7f4e487b7100000000000000000000000000000000000000000000000000000000600052602260045260246000fd5b6000600282049050600182168061346d57607f821691505b6020821081036134805761347f613426565b5b50919050565b60008190508160005260206000209050919050565b600081546134a881613455565b6134b28186612ea6565b945060018216600081146134cd57600181146134e357613516565b60ff198316865281151560200286019350613516565b6134ec85613486565b60005b8381101561350e578154818901526001820191506020810190506134ef565b808801955050505b50505092915050565b600060608201905061353460008301876128fd565b81810360208301526135478185876133c7565b9050818103604083015261355b818461349b565b905095945050505050565b600081905092915050565b600061357c82612e9b565b6135868185613566565b9350613596818560208601612eb7565b80840191505092915050565b60006135ae8284613571565b915081905092915050565b7f6661696c656420746f2063616c6c2073656c6563746f72000000000000000000600082015250565b60006135ef60178361305d565b91506135fa826135b9565b602082019050919050565b6000602082019050818103600083015261361e816135e2565b9050919050565b600082905092915050565b60006020601f8301049050919050565b600082821b905092915050565b60006008830261367d7fffffffffffffffffffffffffffffffffffffffffffffffffffffffffffffffff82613640565b6136878683613640565b95508019841693508086168417925050509392505050565b60006136ba6136b56136b0846127e9565b612fc1565b6127e9565b9050919050565b6000819050919050565b6136d48361369f565b6136e86136e0826136c1565b84845461364d565b825550505050565b600090565b6136fd6136f0565b6137088184846136cb565b505050565b5b8181101561372c576137216000826136f5565b60018101905061370e565b5050565b601f8211156137715761374281613486565b61374b84613630565b8101602085101561375a578190505b61376e61376685613630565b83018261370d565b50505b505050565b600082821c905092915050565b600061379460001984600802613776565b1980831691505092915050565b60006137ad8383613783565b9150826002028217905092915050565b6137c78383613625565b67ffffffffffffffff8111156137e0576137df612bab565b5b6137ea8254613455565b6137f5828285613730565b6000601f8311600181146138245760008415613812578287013590505b61381c85826137a1565b865550613884565b601f19841661383286613486565b60005b8281101561385a57848901358255600182019150602085019450602081019050613835565b868310156138775784890135613873601f891682613783565b8355505b6001600288020188555050505b50505050505050565b60006040820190506138a26000830186612e8c565b81810360208301526138b58184866133c7565b9050949350505050565b7f616363756d756c61746520726576656e75652069732030000000000000000000600082015250565b60006138f560178361305d565b9150613900826138bf565b602082019050919050565b60006020820190508181036000830152613924816138e8565b9050919050565b61393481612a0d565b82525050565b600060608201905061394f600083018661392b565b61395c602083018561392b565b818103604083015261396e8184612ee1565b9050949350505050565b600081519050613987816127f3565b92915050565b6000602082840312156139a3576139a26127df565b5b60006139b184828501613978565b91505092915050565b6139c382612e9b565b67ffffffffffffffff8111156139dc576139db612bab565b5b6139e68254613455565b6139f1828285613730565b600060209050601f831160018114613a245760008415613a12578287015190505b613a1c85826137a1565b865550613a84565b601f198416613a3286613486565b60005b82811015613a5a57848901518255600182019150602085019450602081019050613a35565b86831015613a775784890151613a73601f891682613783565b8355505b6001600288020188555050505b505050505050565b600060a082019050613aa160008301886128fd565b8181036020830152613ab38187612ee1565b9050613ac26040830186612e8c565b613acf6060830185612f1a565b8181036080830152613ae18184612ee1565b90509695505050505050565b7f4e487b7100000000000000000000000000000000000000000000000000000000600052603160045260246000fd5b6000613b2f613b2a84612c26565b612c0b565b905082815260208101848484011115613b4b57613b4a612b95565b5b613b56848285612eb7565b509392505050565b600082601f830112613b7357613b72612ad0565b5b8151613b83848260208601613b1c565b91505092915050565b600060208284031215613ba257613ba16127df565b5b600082015167ffffffffffffffff811115613bc057613bbf6127e4565b5b613bcc84828501613b5e565b91505092915050565b7f6f7574707574206e6f742075706c6f6164656400000000000000000000000000600082015250565b6000613c0b60138361305d565b9150613c1682613bd5565b602082019050919050565b60006020820190508181036000830152613c3a81613bfe565b9050919050565b6000606082019050613c5660008301866128fd565b8181036020830152613c688185612ee1565b90508181036040830152613c7c818461349b565b9050949350505050565b6000604082019050613c9b6000830185612e8c565b8181036020830152613cad8184612ee1565b90509392505050565b7f6d6f64656c20616c726561647920657869737473000000000000000000000000600082015250565b6000613cec60148361305d565b9150613cf782613cb6565b602082019050919050565b60006020820190508181036000830152613d1b81613cdf565b9050919050565b6000604082019050613d37600083018561392b565b613d44602083018461392b565b9392505050565b7f496e20626c61636b6c6973740000000000000000000000000000000000000000600082015250565b6000613d81600c8361305d565b9150613d8c82613d4b565b602082019050919050565b60006020820190508181036000830152613db081613d74565b9050919050565b7f696e73756666696369656e742066656500000000000000000000000000000000600082015250565b6000613ded60108361305d565b9150613df882613db7565b602082019050919050565b60006020820190508181036000830152613e1c81613de0565b9050919050565b7f4e487b7100000000000000000000000000000000000000000000000000000000600052601260045260246000fd5b6000613e5d826127e9565b9150613e68836127e9565b925082613e7857613e77613e23565b5b828204905092915050565b7f696e707574206e6f742075706c6f616465640000000000000000000000000000600082015250565b6000613eb960128361305d565b9150613ec482613e83565b602082019050919050565b60006020820190508181036000830152613ee881613eac565b9050919050565b7f6761734c696d69742063616e6e6f742062652030000000000000000000000000600082015250565b6000613f2560148361305d565b9150613f3082613eef565b602082019050919050565b60006020820190508181036000830152613f5481613f18565b905091905056fea2646970667358221220c958fce070ace19b1ccfaa4652aac7f3fffc400e3ed49e73aedcce60b3b9434764736f6c63430008140033",
  "linkReferences": {},
  "deployedLinkReferences": {}
}