{
  "_format": "hh-sol-artifact-1",
  "contractName": "ProxyFactory",
  "sourceName": "contracts/upgrade/ProxyFactory.sol",
  "abi": [
    {
      "inputs": [
        {
          "internalType": "address",
          "name": "impl",
          "type": "address"
        },
        {
          "internalType": "uint256",
          "name": "_salt",
          "type": "uint256"
        }
      ],
      "name": "deploy",
      "outputs": [],
      "stateMutability": "nonpayable",
      "type": "function"
    },
    {
      "inputs": [
        {
          "internalType": "address",
          "name": "impl",
          "type": "address"
        },
        {
          "internalType": "uint256",
          "name": "_salt",
          "type": "uint256"
        }
      ],
      "name": "getCreate2Address",
      "outputs": [
        {
          "internalType": "address",
          "name": "",
          "type": "address"
        }
      ],
      "stateMutability": "view",
      "type": "function"
    }
  ],
  "bytecode": "0x608060405234801561001057600080fd5b5061239c806100206000396000f3fe60806040523480156200001157600080fd5b50600436106200003a5760003560e01c80634956eaf0146200003f5780635e28c1d9146200005f575b600080fd5b6200005d600480360381019062000057919062000470565b62000095565b005b6200007d600480360381019062000077919062000470565b62000149565b6040516200008c9190620004c8565b60405180910390f35b6000339050600060405180602001604052806000815250905060008360001b858484604051620000c590620003b1565b620000d3939291906200057f565b8190604051809103906000f5905080158015620000f4573d6000803e3d6000fd5b509050620001376040518060400160405280600781526020017f70726f78793a20000000000000000000000000000000000000000000000000008152506200022c565b6200014281620002c9565b5050505050565b600080339050600060405180602001604052806000815250905060008460001b90506000604051806020016200017f90620003b1565b6020820181038252601f19601f82011660405250878585604051602001620001aa939291906200057f565b604051602081830303815290604052604051602001620001cc92919062000605565b604051602081830303815290604052805190602001209050600060ff60f81b308484604051602001620002039493929190620006fd565b6040516020818303038152906040528051906020012060001c9050809550505050505092915050565b620002c681604051602401620002439190620007b0565b6040516020818303038152906040527f41304fac000000000000000000000000000000000000000000000000000000007bffffffffffffffffffffffffffffffffffffffffffffffffffffffff19166020820180517bffffffffffffffffffffffffffffffffffffffffffffffffffffffff838183161783525050505062000366565b50565b6200036381604051602401620002e09190620004c8565b6040516020818303038152906040527f2c2ecbc2000000000000000000000000000000000000000000000000000000007bffffffffffffffffffffffffffffffffffffffffffffffffffffffff19166020820180517bffffffffffffffffffffffffffffffffffffffffffffffffffffffff838183161783525050505062000366565b50565b62000381816200037962000384620003a5565b63ffffffff16565b50565b60006a636f6e736f6c652e6c6f679050600080835160208501845afa505050565b620003bf819050919050565b611b63806200080483390190565b620003c9620007d4565b565b600080fd5b600073ffffffffffffffffffffffffffffffffffffffff82169050919050565b6000620003fd82620003d0565b9050919050565b6200040f81620003f0565b81146200041b57600080fd5b50565b6000813590506200042f8162000404565b92915050565b6000819050919050565b6200044a8162000435565b81146200045657600080fd5b50565b6000813590506200046a816200043f565b92915050565b600080604083850312156200048a5762000489620003cb565b5b60006200049a858286016200041e565b9250506020620004ad8582860162000459565b9150509250929050565b620004c281620003f0565b82525050565b6000602082019050620004df6000830184620004b7565b92915050565b600081519050919050565b600082825260208201905092915050565b60005b838110156200052157808201518184015260208101905062000504565b60008484015250505050565b6000601f19601f8301169050919050565b60006200054b82620004e5565b620005578185620004f0565b93506200056981856020860162000501565b62000574816200052d565b840191505092915050565b6000606082019050620005966000830186620004b7565b620005a56020830185620004b7565b8181036040830152620005b981846200053e565b9050949350505050565b600081905092915050565b6000620005db82620004e5565b620005e78185620005c3565b9350620005f981856020860162000501565b80840191505092915050565b6000620006138285620005ce565b9150620006218284620005ce565b91508190509392505050565b60007fff0000000000000000000000000000000000000000000000000000000000000082169050919050565b6000819050919050565b6200067862000672826200062d565b62000659565b82525050565b60008160601b9050919050565b600062000698826200067e565b9050919050565b6000620006ac826200068b565b9050919050565b620006c8620006c282620003f0565b6200069f565b82525050565b6000819050919050565b6000819050919050565b620006f7620006f182620006ce565b620006d8565b82525050565b60006200070b828762000663565b6001820191506200071d8286620006b3565b6014820191506200072f8285620006e2565b602082019150620007418284620006e2565b60208201915081905095945050505050565b600081519050919050565b600082825260208201905092915050565b60006200077c8262000753565b6200078881856200075e565b93506200079a81856020860162000501565b620007a5816200052d565b840191505092915050565b60006020820190508181036000830152620007cc81846200076f565b905092915050565b7f4e487b7100000000000000000000000000000000000000000000000000000000600052605160045260246000fdfe60a060405260405162001b6338038062001b638339818101604052810190620000299190620007b0565b82816200003d8282620000d460201b60201c565b5050816040516200004e90620005aa565b6200005a91906200083c565b604051809103906000f08015801562000077573d6000803e3d6000fd5b5073ffffffffffffffffffffffffffffffffffffffff1660808173ffffffffffffffffffffffffffffffffffffffff1681525050620000cb620000bf6200016160201b60201c565b6200016b60201b60201c565b505050620008ec565b620000e582620001c960201b60201c565b8173ffffffffffffffffffffffffffffffffffffffff167fbc7cd75a20ee27fd9adebab32041f755214dbc6bffa90cc0225b39da2e5c2d3b60405160405180910390a26000815111156200014c57620001458282620002a160201b60201c565b506200015d565b6200015c6200033160201b60201c565b5b5050565b6000608051905090565b7f7e644d79422f17c01e4894b5f4f588d331ebfa28653d42ae832dc59e38c9798f6200019c6200036f60201b60201c565b82604051620001ad92919062000859565b60405180910390a1620001c681620003ce60201b60201c565b50565b60008173ffffffffffffffffffffffffffffffffffffffff163b036200022857806040517f4c9c8ce30000000000000000000000000000000000000000000000000000000081526004016200021f91906200083c565b60405180910390fd5b806200025d7f360894a13ba1a3210667c828492db98dca3e2076cc3735a920a3ca505d382bbc60001b620004bc60201b60201c565b60000160006101000a81548173ffffffffffffffffffffffffffffffffffffffff021916908373ffffffffffffffffffffffffffffffffffffffff16021790555050565b60606000808473ffffffffffffffffffffffffffffffffffffffff1684604051620002cd9190620008d3565b600060405180830381855af49150503d80600081146200030a576040519150601f19603f3d011682016040523d82523d6000602084013e6200030f565b606091505b509150915062000327858383620004c660201b60201c565b9250505092915050565b60003411156200036d576040517fb398979f00000000000000000000000000000000000000000000000000000000815260040160405180910390fd5b565b6000620003a57fb53127684a568b3173ae13b9f8a6016e243e63b6e8ee1178d6a717850b5d610360001b620004bc60201b60201c565b60000160009054906101000a900473ffffffffffffffffffffffffffffffffffffffff16905090565b600073ffffffffffffffffffffffffffffffffffffffff168173ffffffffffffffffffffffffffffffffffffffff1603620004435760006040517f62e77ba20000000000000000000000000000000000000000000000000000000081526004016200043a91906200083c565b60405180910390fd5b80620004787fb53127684a568b3173ae13b9f8a6016e243e63b6e8ee1178d6a717850b5d610360001b620004bc60201b60201c565b60000160006101000a81548173ffffffffffffffffffffffffffffffffffffffff021916908373ffffffffffffffffffffffffffffffffffffffff16021790555050565b6000819050919050565b606082620004e557620004df826200056460201b60201c565b6200055c565b600082511480156200050e575060008473ffffffffffffffffffffffffffffffffffffffff163b145b156200055357836040517f9996b3150000000000000000000000000000000000000000000000000000000081526004016200054a91906200083c565b60405180910390fd5b8190506200055d565b5b9392505050565b600081511115620005785780518082602001fd5b6040517f1425ea4200000000000000000000000000000000000000000000000000000000815260040160405180910390fd5b610a2b806200113883390190565b6000604051905090565b600080fd5b600080fd5b600073ffffffffffffffffffffffffffffffffffffffff82169050919050565b6000620005f982620005cc565b9050919050565b6200060b81620005ec565b81146200061757600080fd5b50565b6000815190506200062b8162000600565b92915050565b600080fd5b600080fd5b6000601f19601f8301169050919050565b7f4e487b7100000000000000000000000000000000000000000000000000000000600052604160045260246000fd5b62000686826200063b565b810181811067ffffffffffffffff82111715620006a857620006a76200064c565b5b80604052505050565b6000620006bd620005b8565b9050620006cb82826200067b565b919050565b600067ffffffffffffffff821115620006ee57620006ed6200064c565b5b620006f9826200063b565b9050602081019050919050565b60005b838110156200072657808201518184015260208101905062000709565b60008484015250505050565b6000620007496200074384620006d0565b620006b1565b90508281526020810184848401111562000768576200076762000636565b5b6200077584828562000706565b509392505050565b600082601f83011262000795576200079462000631565b5b8151620007a784826020860162000732565b91505092915050565b600080600060608486031215620007cc57620007cb620005c2565b5b6000620007dc868287016200061a565b9350506020620007ef868287016200061a565b925050604084015167ffffffffffffffff811115620008135762000812620005c7565b5b62000821868287016200077d565b9150509250925092565b6200083681620005ec565b82525050565b60006020820190506200085360008301846200082b565b92915050565b60006040820190506200087060008301856200082b565b6200087f60208301846200082b565b9392505050565b600081519050919050565b600081905092915050565b6000620008a98262000886565b620008b5818562000891565b9350620008c781856020860162000706565b80840191505092915050565b6000620008e182846200089c565b915081905092915050565b60805161083062000908600039600061010601526108306000f3fe608060405261000c61000e565b005b610016610102565b73ffffffffffffffffffffffffffffffffffffffff163373ffffffffffffffffffffffffffffffffffffffff16036100f757634f1ef28660e01b7bffffffffffffffffffffffffffffffffffffffffffffffffffffffff19166000357fffffffff00000000000000000000000000000000000000000000000000000000167bffffffffffffffffffffffffffffffffffffffffffffffffffffffff1916146100ea576040517fd2b576ec00000000000000000000000000000000000000000000000000000000815260040160405180910390fd5b6100f261012a565b610100565b6100ff610160565b5b565b60007f0000000000000000000000000000000000000000000000000000000000000000905090565b6000806000366004908092610141939291906104f1565b81019061014e91906106da565b9150915061015c8282610172565b5050565b61017061016b6101e5565b6101f4565b565b61017b8261021a565b8173ffffffffffffffffffffffffffffffffffffffff167fbc7cd75a20ee27fd9adebab32041f755214dbc6bffa90cc0225b39da2e5c2d3b60405160405180910390a26000815111156101d8576101d282826102e7565b506101e1565b6101e061036b565b5b5050565b60006101ef6103a8565b905090565b3660008037600080366000845af43d6000803e8060008114610215573d6000f35b3d6000fd5b60008173ffffffffffffffffffffffffffffffffffffffff163b0361027657806040517f4c9c8ce300000000000000000000000000000000000000000000000000000000815260040161026d9190610757565b60405180910390fd5b806102a37f360894a13ba1a3210667c828492db98dca3e2076cc3735a920a3ca505d382bbc60001b6103ff565b60000160006101000a81548173ffffffffffffffffffffffffffffffffffffffff021916908373ffffffffffffffffffffffffffffffffffffffff16021790555050565b60606000808473ffffffffffffffffffffffffffffffffffffffff168460405161031191906107e3565b600060405180830381855af49150503d806000811461034c576040519150601f19603f3d011682016040523d82523d6000602084013e610351565b606091505b5091509150610361858383610409565b9250505092915050565b60003411156103a6576040517fb398979f00000000000000000000000000000000000000000000000000000000815260040160405180910390fd5b565b60006103d67f360894a13ba1a3210667c828492db98dca3e2076cc3735a920a3ca505d382bbc60001b6103ff565b60000160009054906101000a900473ffffffffffffffffffffffffffffffffffffffff16905090565b6000819050919050565b60608261041e5761041982610498565b610490565b60008251148015610446575060008473ffffffffffffffffffffffffffffffffffffffff163b145b1561048857836040517f9996b31500000000000000000000000000000000000000000000000000000000815260040161047f9190610757565b60405180910390fd5b819050610491565b5b9392505050565b6000815111156104ab5780518082602001fd5b6040517f1425ea4200000000000000000000000000000000000000000000000000000000815260040160405180910390fd5b6000604051905090565b600080fd5b600080fd5b60008085851115610505576105046104e7565b5b83861115610516576105156104ec565b5b6001850283019150848603905094509492505050565b600080fd5b600080fd5b600073ffffffffffffffffffffffffffffffffffffffff82169050919050565b600061056182610536565b9050919050565b61057181610556565b811461057c57600080fd5b50565b60008135905061058e81610568565b92915050565b600080fd5b600080fd5b6000601f19601f8301169050919050565b7f4e487b7100000000000000000000000000000000000000000000000000000000600052604160045260246000fd5b6105e78261059e565b810181811067ffffffffffffffff82111715610606576106056105af565b5b80604052505050565b60006106196104dd565b905061062582826105de565b919050565b600067ffffffffffffffff821115610645576106446105af565b5b61064e8261059e565b9050602081019050919050565b82818337600083830152505050565b600061067d6106788461062a565b61060f565b90508281526020810184848401111561069957610698610599565b5b6106a484828561065b565b509392505050565b600082601f8301126106c1576106c0610594565b5b81356106d184826020860161066a565b91505092915050565b600080604083850312156106f1576106f061052c565b5b60006106ff8582860161057f565b925050602083013567ffffffffffffffff8111156107205761071f610531565b5b61072c858286016106ac565b9150509250929050565b600061074182610536565b9050919050565b61075181610736565b82525050565b600060208201905061076c6000830184610748565b92915050565b600081519050919050565b600081905092915050565b60005b838110156107a657808201518184015260208101905061078b565b60008484015250505050565b60006107bd82610772565b6107c7818561077d565b93506107d7818560208601610788565b80840191505092915050565b60006107ef82846107b2565b91508190509291505056fea2646970667358221220b07be8f73e994fe218617e9eaf2c23327ffdb4abd89d148f958abfea9cc4aee764736f6c63430008140033608060405234801561001057600080fd5b50604051610a2b380380610a2b833981810160405281019061003291906101e2565b80600073ffffffffffffffffffffffffffffffffffffffff168173ffffffffffffffffffffffffffffffffffffffff16036100a55760006040517f1e4fbdf700000000000000000000000000000000000000000000000000000000815260040161009c919061021e565b60405180910390fd5b6100b4816100bb60201b60201c565b5050610239565b60008060009054906101000a900473ffffffffffffffffffffffffffffffffffffffff169050816000806101000a81548173ffffffffffffffffffffffffffffffffffffffff021916908373ffffffffffffffffffffffffffffffffffffffff1602179055508173ffffffffffffffffffffffffffffffffffffffff168173ffffffffffffffffffffffffffffffffffffffff167f8be0079c531659141344cd1fd0a4f28419497f9722a3daafe3b4186f6b6457e060405160405180910390a35050565b600080fd5b600073ffffffffffffffffffffffffffffffffffffffff82169050919050565b60006101af82610184565b9050919050565b6101bf816101a4565b81146101ca57600080fd5b50565b6000815190506101dc816101b6565b92915050565b6000602082840312156101f8576101f761017f565b5b6000610206848285016101cd565b91505092915050565b610218816101a4565b82525050565b6000602082019050610233600083018461020f565b92915050565b6107e3806102486000396000f3fe60806040526004361061004a5760003560e01c8063715018a61461004f5780638da5cb5b146100665780639623609d14610091578063ad3cb1cc146100ad578063f2fde38b146100d8575b600080fd5b34801561005b57600080fd5b50610064610101565b005b34801561007257600080fd5b5061007b610115565b604051610088919061040c565b60405180910390f35b6100ab60048036038101906100a691906105eb565b61013e565b005b3480156100b957600080fd5b506100c26101b9565b6040516100cf91906106d9565b60405180910390f35b3480156100e457600080fd5b506100ff60048036038101906100fa91906106fb565b6101f2565b005b610109610278565b61011360006102ff565b565b60008060009054906101000a900473ffffffffffffffffffffffffffffffffffffffff16905090565b610146610278565b8273ffffffffffffffffffffffffffffffffffffffff16634f1ef2863484846040518463ffffffff1660e01b815260040161018292919061077d565b6000604051808303818588803b15801561019b57600080fd5b505af11580156101af573d6000803e3d6000fd5b5050505050505050565b6040518060400160405280600581526020017f352e302e3000000000000000000000000000000000000000000000000000000081525081565b6101fa610278565b600073ffffffffffffffffffffffffffffffffffffffff168173ffffffffffffffffffffffffffffffffffffffff160361026c5760006040517f1e4fbdf7000000000000000000000000000000000000000000000000000000008152600401610263919061040c565b60405180910390fd5b610275816102ff565b50565b6102806103c3565b73ffffffffffffffffffffffffffffffffffffffff1661029e610115565b73ffffffffffffffffffffffffffffffffffffffff16146102fd576102c16103c3565b6040517f118cdaa70000000000000000000000000000000000000000000000000000000081526004016102f4919061040c565b60405180910390fd5b565b60008060009054906101000a900473ffffffffffffffffffffffffffffffffffffffff169050816000806101000a81548173ffffffffffffffffffffffffffffffffffffffff021916908373ffffffffffffffffffffffffffffffffffffffff1602179055508173ffffffffffffffffffffffffffffffffffffffff168173ffffffffffffffffffffffffffffffffffffffff167f8be0079c531659141344cd1fd0a4f28419497f9722a3daafe3b4186f6b6457e060405160405180910390a35050565b600033905090565b600073ffffffffffffffffffffffffffffffffffffffff82169050919050565b60006103f6826103cb565b9050919050565b610406816103eb565b82525050565b600060208201905061042160008301846103fd565b92915050565b6000604051905090565b600080fd5b600080fd5b6000610446826103eb565b9050919050565b6104568161043b565b811461046157600080fd5b50565b6000813590506104738161044d565b92915050565b610482816103eb565b811461048d57600080fd5b50565b60008135905061049f81610479565b92915050565b600080fd5b600080fd5b6000601f19601f8301169050919050565b7f4e487b7100000000000000000000000000000000000000000000000000000000600052604160045260246000fd5b6104f8826104af565b810181811067ffffffffffffffff82111715610517576105166104c0565b5b80604052505050565b600061052a610427565b905061053682826104ef565b919050565b600067ffffffffffffffff821115610556576105556104c0565b5b61055f826104af565b9050602081019050919050565b82818337600083830152505050565b600061058e6105898461053b565b610520565b9050828152602081018484840111156105aa576105a96104aa565b5b6105b584828561056c565b509392505050565b600082601f8301126105d2576105d16104a5565b5b81356105e284826020860161057b565b91505092915050565b60008060006060848603121561060457610603610431565b5b600061061286828701610464565b935050602061062386828701610490565b925050604084013567ffffffffffffffff81111561064457610643610436565b5b610650868287016105bd565b9150509250925092565b600081519050919050565b600082825260208201905092915050565b60005b83811015610694578082015181840152602081019050610679565b60008484015250505050565b60006106ab8261065a565b6106b58185610665565b93506106c5818560208601610676565b6106ce816104af565b840191505092915050565b600060208201905081810360008301526106f381846106a0565b905092915050565b60006020828403121561071157610710610431565b5b600061071f84828501610490565b91505092915050565b600081519050919050565b600082825260208201905092915050565b600061074f82610728565b6107598185610733565b9350610769818560208601610676565b610772816104af565b840191505092915050565b600060408201905061079260008301856103fd565b81810360208301526107a48184610744565b9050939250505056fea2646970667358221220059a81e3eccd291a9924e271b06a490688133a9c35d72e046a35c1c082e6364564736f6c63430008140033a2646970667358221220f42ed3d7d87237d2935d7e72a9ff3a4483a3eb1b6a6b0e32f63b49a121b30f6d64736f6c63430008140033",
  "linkReferences": {},
  "deployedLinkReferences": {}
}