{
  "_format": "hh-sol-artifact-1",
  "contractName": "AIOracle",
  "sourceName": "contracts/AIOracle.sol",
  "abi": [
    {
      "anonymous": false,
      "inputs": [
        {
          "indexed": true,
          "internalType": "address",
          "name": "account",
          "type": "address"
        },
        {
          "indexed": true,
          "internalType": "uint256",
          "name": "requestId",
          "type": "uint256"
        },
        {
          "indexed": false,
          "internalType": "uint256",
          "name": "modelId",
          "type": "uint256"
        },
        {
          "indexed": false,
          "internalType": "bytes",
          "name": "input",
          "type": "bytes"
        },
        {
          "indexed": false,
          "internalType": "address",
          "name": "callbackContract",
          "type": "address"
        },
        {
          "indexed": false,
          "internalType": "uint64",
          "name": "gasLimit",
          "type": "uint64"
        },
        {
          "indexed": false,
          "internalType": "bytes",
          "name": "callbackData",
          "type": "bytes"
        }
      ],
      "name": "AICallbackRequest",
      "type": "event"
    },
    {
      "anonymous": false,
      "inputs": [
        {
          "indexed": true,
          "internalType": "address",
          "name": "account",
          "type": "address"
        },
        {
          "indexed": true,
          "internalType": "uint256",
          "name": "requestId",
          "type": "uint256"
        },
        {
          "indexed": false,
          "internalType": "address",
          "name": "invoker",
          "type": "address"
        },
        {
          "indexed": false,
          "internalType": "bytes",
          "name": "output",
          "type": "bytes"
        }
      ],
      "name": "AICallbackResult",
      "type": "event"
    },
    {
      "inputs": [
        {
          "internalType": "address",
          "name": "_address",
          "type": "address"
        }
      ],
      "name": "addToBlacklist",
      "outputs": [],
      "stateMutability": "nonpayable",
      "type": "function"
    },
    {
      "inputs": [
        {
          "internalType": "address",
          "name": "_address",
          "type": "address"
        }
      ],
      "name": "addToWhitelist",
      "outputs": [],
      "stateMutability": "nonpayable",
      "type": "function"
    },
    {
      "inputs": [
        {
          "internalType": "address",
          "name": "",
          "type": "address"
        }
      ],
      "name": "blacklist",
      "outputs": [
        {
          "internalType": "bool",
          "name": "",
          "type": "bool"
        }
      ],
      "stateMutability": "view",
      "type": "function"
    },
    {
      "inputs": [],
      "name": "callbackFunctionSelector",
      "outputs": [
        {
          "internalType": "bytes4",
          "name": "",
          "type": "bytes4"
        }
      ],
      "stateMutability": "view",
      "type": "function"
    },
    {
      "inputs": [
        {
          "internalType": "uint256",
          "name": "modelId",
          "type": "uint256"
        }
      ],
      "name": "claimModelRevenue",
      "outputs": [],
      "stateMutability": "nonpayable",
      "type": "function"
    },
    {
      "inputs": [
        {
          "internalType": "uint256",
          "name": "modelId",
          "type": "uint256"
        },
        {
          "internalType": "uint256",
          "name": "gasLimit",
          "type": "uint256"
        }
      ],
      "name": "estimateFee",
      "outputs": [
        {
          "internalType": "uint256",
          "name": "",
          "type": "uint256"
        }
      ],
      "stateMutability": "view",
      "type": "function"
    },
    {
      "inputs": [],
      "name": "gasPrice",
      "outputs": [
        {
          "internalType": "uint256",
          "name": "",
          "type": "uint256"
        }
      ],
      "stateMutability": "view",
      "type": "function"
    },
    {
      "inputs": [
        {
          "internalType": "uint256",
          "name": "modelId",
          "type": "uint256"
        }
      ],
      "name": "getModel",
      "outputs": [
        {
          "components": [
            {
              "internalType": "bytes32",
              "name": "modelHash",
              "type": "bytes32"
            },
            {
              "internalType": "bytes32",
              "name": "programHash",
              "type": "bytes32"
            },
            {
              "internalType": "uint256",
              "name": "fee",
              "type": "uint256"
            },
            {
              "internalType": "address",
              "name": "receiver",
              "type": "address"
            },
            {
              "internalType": "uint256",
              "name": "receiverPercentage",
              "type": "uint256"
            },
            {
              "internalType": "uint256",
              "name": "accumulateRevenue",
              "type": "uint256"
            }
          ],
          "internalType": "struct AIOracle.ModelData",
          "name": "",
          "type": "tuple"
        }
      ],
      "stateMutability": "view",
      "type": "function"
    },
    {
      "inputs": [
        {
          "internalType": "uint256",
          "name": "requestId",
          "type": "uint256"
        }
      ],
      "name": "getOutput",
      "outputs": [
        {
          "internalType": "bytes",
          "name": "output",
          "type": "bytes"
        }
      ],
      "stateMutability": "view",
      "type": "function"
    },
    {
      "inputs": [
        {
          "internalType": "uint256",
          "name": "requestId",
          "type": "uint256"
        },
        {
          "internalType": "bytes",
          "name": "output",
          "type": "bytes"
        }
      ],
      "name": "invokeCallback",
      "outputs": [],
      "stateMutability": "nonpayable",
      "type": "function"
    },
    {
      "inputs": [
        {
          "internalType": "uint256",
          "name": "requestId",
          "type": "uint256"
        }
      ],
      "name": "isFinalized",
      "outputs": [
        {
          "internalType": "bool",
          "name": "",
          "type": "bool"
        }
      ],
      "stateMutability": "view",
      "type": "function"
    },
    {
      "inputs": [
        {
          "internalType": "uint256",
          "name": "",
          "type": "uint256"
        }
      ],
      "name": "modelIDs",
      "outputs": [
        {
          "internalType": "uint256",
          "name": "",
          "type": "uint256"
        }
      ],
      "stateMutability": "view",
      "type": "function"
    },
    {
      "inputs": [],
      "name": "numberOfModels",
      "outputs": [
        {
          "internalType": "uint256",
          "name": "",
          "type": "uint256"
        }
      ],
      "stateMutability": "view",
      "type": "function"
    },
    {
      "inputs": [],
      "name": "opml",
      "outputs": [
        {
          "internalType": "contract IOpml",
          "name": "",
          "type": "address"
        }
      ],
      "stateMutability": "view",
      "type": "function"
    },
    {
      "inputs": [
        {
          "internalType": "uint256",
          "name": "",
          "type": "uint256"
        }
      ],
      "name": "outputOfRequest",
      "outputs": [
        {
          "internalType": "bytes",
          "name": "",
          "type": "bytes"
        }
      ],
      "stateMutability": "view",
      "type": "function"
    },
    {
      "inputs": [],
      "name": "owner",
      "outputs": [
        {
          "internalType": "address",
          "name": "",
          "type": "address"
        }
      ],
      "stateMutability": "view",
      "type": "function"
    },
    {
      "inputs": [
        {
          "internalType": "address",
          "name": "_address",
          "type": "address"
        }
      ],
      "name": "removeFromBlacklist",
      "outputs": [],
      "stateMutability": "nonpayable",
      "type": "function"
    },
    {
      "inputs": [
        {
          "internalType": "address",
          "name": "_address",
          "type": "address"
        }
      ],
      "name": "removeFromWhitelist",
      "outputs": [],
      "stateMutability": "nonpayable",
      "type": "function"
    },
    {
      "inputs": [
        {
          "internalType": "uint256",
          "name": "modelId",
          "type": "uint256"
        }
      ],
      "name": "removeModel",
      "outputs": [],
      "stateMutability": "nonpayable",
      "type": "function"
    },
    {
      "inputs": [
        {
          "internalType": "uint256",
          "name": "modelId",
          "type": "uint256"
        },
        {
          "internalType": "bytes",
          "name": "input",
          "type": "bytes"
        },
        {
          "internalType": "address",
          "name": "callbackContract",
          "type": "address"
        },
        {
          "internalType": "uint64",
          "name": "gasLimit",
          "type": "uint64"
        },
        {
          "internalType": "bytes",
          "name": "callbackData",
          "type": "bytes"
        }
      ],
      "name": "requestCallback",
      "outputs": [
        {
          "internalType": "uint256",
          "name": "",
          "type": "uint256"
        }
      ],
      "stateMutability": "payable",
      "type": "function"
    },
    {
      "inputs": [
        {
          "internalType": "uint256",
          "name": "",
          "type": "uint256"
        }
      ],
      "name": "requests",
      "outputs": [
        {
          "internalType": "address",
          "name": "account",
          "type": "address"
        },
        {
          "internalType": "uint256",
          "name": "requestId",
          "type": "uint256"
        },
        {
          "internalType": "uint256",
          "name": "modelId",
          "type": "uint256"
        },
        {
          "internalType": "bytes",
          "name": "input",
          "type": "bytes"
        },
        {
          "internalType": "address",
          "name": "callbackContract",
          "type": "address"
        },
        {
          "internalType": "uint64",
          "name": "gasLimit",
          "type": "uint64"
        },
        {
          "internalType": "bytes",
          "name": "callbackData",
          "type": "bytes"
        }
      ],
      "stateMutability": "view",
      "type": "function"
    },
    {
      "inputs": [],
      "name": "resetGasPrice",
      "outputs": [],
      "stateMutability": "nonpayable",
      "type": "function"
    },
    {
      "inputs": [],
      "name": "resetModelIDs",
      "outputs": [],
      "stateMutability": "nonpayable",
      "type": "function"
    },
    {
      "inputs": [],
      "name": "server",
      "outputs": [
        {
          "internalType": "address",
          "name": "",
          "type": "address"
        }
      ],
      "stateMutability": "view",
      "type": "function"
    },
    {
      "inputs": [
        {
          "internalType": "uint256",
          "name": "modelId",
          "type": "uint256"
        },
        {
          "internalType": "uint256",
          "name": "_fee",
          "type": "uint256"
        }
      ],
      "name": "setModelFee",
      "outputs": [],
      "stateMutability": "nonpayable",
      "type": "function"
    },
    {
      "inputs": [
        {
          "internalType": "uint256",
          "name": "modelId",
          "type": "uint256"
        },
        {
          "internalType": "address",
          "name": "receiver",
          "type": "address"
        }
      ],
      "name": "setModelReceiver",
      "outputs": [],
      "stateMutability": "nonpayable",
      "type": "function"
    },
    {
      "inputs": [
        {
          "internalType": "uint256",
          "name": "modelId",
          "type": "uint256"
        },
        {
          "internalType": "uint256",
          "name": "receiverPercentage",
          "type": "uint256"
        }
      ],
      "name": "setModelReceiverPercentage",
      "outputs": [],
      "stateMutability": "nonpayable",
      "type": "function"
    },
    {
      "inputs": [
        {
          "internalType": "address",
          "name": "newOpml",
          "type": "address"
        }
      ],
      "name": "setOpml",
      "outputs": [],
      "stateMutability": "nonpayable",
      "type": "function"
    },
    {
      "inputs": [
        {
          "internalType": "address",
          "name": "newOwner",
          "type": "address"
        }
      ],
      "name": "transferOwnership",
      "outputs": [],
      "stateMutability": "nonpayable",
      "type": "function"
    },
    {
      "inputs": [
        {
          "internalType": "uint256",
          "name": "modelId",
          "type": "uint256"
        },
        {
          "internalType": "bytes32",
          "name": "modelHash",
          "type": "bytes32"
        },
        {
          "internalType": "bytes32",
          "name": "programHash",
          "type": "bytes32"
        },
        {
          "internalType": "uint256",
          "name": "fee",
          "type": "uint256"
        },
        {
          "internalType": "address",
          "name": "receiver",
          "type": "address"
        },
        {
          "internalType": "uint256",
          "name": "receiverPercentage",
          "type": "uint256"
        }
      ],
      "name": "updateModel",
      "outputs": [],
      "stateMutability": "nonpayable",
      "type": "function"
    },
    {
      "inputs": [
        {
          "internalType": "uint256",
          "name": "requestId",
          "type": "uint256"
        }
      ],
      "name": "updateResult",
      "outputs": [],
      "stateMutability": "nonpayable",
      "type": "function"
    },
    {
      "inputs": [
        {
          "internalType": "uint256",
          "name": "modelId",
          "type": "uint256"
        },
        {
          "internalType": "bytes32",
          "name": "modelHash",
          "type": "bytes32"
        },
        {
          "internalType": "bytes32",
          "name": "programHash",
          "type": "bytes32"
        },
        {
          "internalType": "uint256",
          "name": "fee",
          "type": "uint256"
        },
        {
          "internalType": "address",
          "name": "receiver",
          "type": "address"
        },
        {
          "internalType": "uint256",
          "name": "receiverPercentage",
          "type": "uint256"
        }
      ],
      "name": "uploadModel",
      "outputs": [],
      "stateMutability": "nonpayable",
      "type": "function"
    },
    {
      "inputs": [
        {
          "internalType": "address",
          "name": "",
          "type": "address"
        }
      ],
      "name": "whitelist",
      "outputs": [
        {
          "internalType": "bool",
          "name": "",
          "type": "bool"
        }
      ],
      "stateMutability": "view",
      "type": "function"
    },
    {
      "inputs": [],
      "name": "withdraw",
      "outputs": [],
      "stateMutability": "nonpayable",
      "type": "function"
    }
  ],
  "bytecode": "0x608060405234801561001057600080fd5b50614ad4806100206000396000f3fe6080604052600436106101f75760003560e01c8063754592b21161010d578063b1097523116100a0578063ea5abe611161006f578063ea5abe6114610720578063f2fde38b14610749578063f9f92be414610772578063fd922a42146107af578063fe173b97146107da576101f7565b8063b109752314610666578063b70b5ccc146106a3578063e43252d7146106cc578063e857f747146106f5576101f7565b80638da5cb5b116100dc5780638da5cb5b146105bc5780639a6a794f146105e75780639b19251a14610612578063ace04ec71461064f576101f7565b8063754592b21461051057806381d12c581461052757806382dcc26d1461056a5780638ab1d68114610593576101f7565b8063537df3b6116101905780635b9538061161015f5780635b95380614610428578063699ecb83146104585780636b0641a3146104815780636c124d74146104aa5780636d361694146104d3576101f7565b8063537df3b61461038457806354c33b10146103ad57806355d15d93146103d65780635638101b146103ff576101f7565b8063349c4136116101cc578063349c4136146102dc5780633ccfd60b1461031957806344337ea1146103305780634916373114610359576101f7565b806277f244146101fc578062e1d8d01461022557806317861f871461026257806333727c4d1461029f575b600080fd5b34801561020857600080fd5b50610223600480360381019061021e91906132f6565b610805565b005b34801561023157600080fd5b5061024c60048036038101906102479190613336565b610956565b6040516102599190613385565b60405180910390f35b34801561026e57600080fd5b50610289600480360381019061028491906133a0565b6109f7565b604051610296919061345d565b60405180910390f35b3480156102ab57600080fd5b506102c660048036038101906102c191906133a0565b610aa1565b6040516102d3919061349a565b60405180910390f35b3480156102e857600080fd5b5061030360048036038101906102fe91906133a0565b610b46565b6040516103109190613385565b60405180910390f35b34801561032557600080fd5b5061032e610b6a565b005b34801561033c57600080fd5b50610357600480360381019061035291906134b5565b610dc5565b005b34801561036557600080fd5b5061036e610eaf565b60405161037b919061351d565b60405180910390f35b34801561039057600080fd5b506103ab60048036038101906103a691906134b5565b610eba565b005b3480156103b957600080fd5b506103d460048036038101906103cf919061356e565b610fa4565b005b3480156103e257600080fd5b506103fd60048036038101906103f89190613660565b6111f0565b005b34801561040b57600080fd5b50610426600480360381019061042191906133a0565b61158f565b005b610442600480360381019061043d9190613830565b611738565b60405161044f9190613385565b60405180910390f35b34801561046457600080fd5b5061047f600480360381019061047a9190613336565b611a26565b005b34801561048d57600080fd5b506104a860048036038101906104a391906133a0565b611b81565b005b3480156104b657600080fd5b506104d160048036038101906104cc9190613336565b611e7c565b005b3480156104df57600080fd5b506104fa60048036038101906104f591906133a0565b611f93565b604051610507919061398b565b60405180910390f35b34801561051c57600080fd5b506105256120b0565b005b34801561053357600080fd5b5061054e600480360381019061054991906133a0565b61214a565b60405161056197969594939291906139c4565b60405180910390f35b34801561057657600080fd5b50610591600480360381019061058c91906133a0565b6122f0565b005b34801561059f57600080fd5b506105ba60048036038101906105b591906134b5565b61264f565b005b3480156105c857600080fd5b506105d161273a565b6040516105de9190613a41565b60405180910390f35b3480156105f357600080fd5b506105fc612760565b6040516106099190613abb565b60405180910390f35b34801561061e57600080fd5b50610639600480360381019061063491906134b5565b612786565b604051610646919061349a565b60405180910390f35b34801561065b57600080fd5b506106646127a6565b005b34801561067257600080fd5b5061068d600480360381019061068891906133a0565b612846565b60405161069a919061345d565b60405180910390f35b3480156106af57600080fd5b506106ca60048036038101906106c5919061356e565b6128e6565b005b3480156106d857600080fd5b506106f360048036038101906106ee91906134b5565b612b86565b005b34801561070157600080fd5b5061070a612c71565b6040516107179190613385565b60405180910390f35b34801561072c57600080fd5b50610747600480360381019061074291906134b5565b612c7e565b005b34801561075557600080fd5b50610770600480360381019061076b91906134b5565b612d52565b005b34801561077e57600080fd5b50610799600480360381019061079491906134b5565b612f04565b6040516107a6919061349a565b60405180910390f35b3480156107bb57600080fd5b506107c4612f24565b6040516107d19190613a41565b60405180910390f35b3480156107e657600080fd5b506107ef612f3c565b6040516107fc9190613385565b60405180910390f35b600860009054906101000a900473ffffffffffffffffffffffffffffffffffffffff1673ffffffffffffffffffffffffffffffffffffffff163373ffffffffffffffffffffffffffffffffffffffff1614610895576040517f08c379a000000000000000000000000000000000000000000000000000000000815260040161088c90613b33565b60405180910390fd5b816004600082815260200190815260200160002060009054906101000a900460ff166108f6576040517f08c379a00000000000000000000000000000000000000000000000000000000081526004016108ed90613b9f565b60405180910390fd5b6000600360008581526020019081526020016000209050828160030160006101000a81548173ffffffffffffffffffffffffffffffffffffffff021916908373ffffffffffffffffffffffffffffffffffffffff16021790555050505050565b6000826004600082815260200190815260200160002060009054906101000a900460ff166109b9576040517f08c379a00000000000000000000000000000000000000000000000000000000081526004016109b090613b9f565b60405180910390fd5b6000600360008681526020019081526020016000209050836005546109de9190613bee565b81600201546109ed9190613c30565b9250505092915050565b6060600760009054906101000a900473ffffffffffffffffffffffffffffffffffffffff1673ffffffffffffffffffffffffffffffffffffffff166317861f87836040518263ffffffff1660e01b8152600401610a549190613385565b600060405180830381865afa158015610a71573d6000803e3d6000fd5b505050506040513d6000823e3d601f19601f82011682018060405250810190610a9a9190613cd4565b9050919050565b6000600760009054906101000a900473ffffffffffffffffffffffffffffffffffffffff1673ffffffffffffffffffffffffffffffffffffffff166333727c4d836040518263ffffffff1660e01b8152600401610afe9190613385565b602060405180830381865afa158015610b1b573d6000803e3d6000fd5b505050506040513d601f19601f82011682018060405250810190610b3f9190613d49565b9050919050565b60068181548110610b5657600080fd5b906000526020600020016000915090505481565b600860009054906101000a900473ffffffffffffffffffffffffffffffffffffffff1673ffffffffffffffffffffffffffffffffffffffff163373ffffffffffffffffffffffffffffffffffffffff1614610bfa576040517f08c379a0000000000000000000000000000000000000000000000000000000008152600401610bf190613b33565b60405180910390fd5b600080600090505b600680549050811015610d0357600060068281548110610c2557610c24613d76565b5b906000526020600020015490506000600360008381526020019081526020016000206040518060c00160405290816000820154815260200160018201548152602001600282015481526020016003820160009054906101000a900473ffffffffffffffffffffffffffffffffffffffff1673ffffffffffffffffffffffffffffffffffffffff1673ffffffffffffffffffffffffffffffffffffffff1681526020016004820154815260200160058201548152505090508060a0015184610cec9190613c30565b935050508080610cfb90613da5565b915050610c02565b5060008147610d129190613ded565b905060003373ffffffffffffffffffffffffffffffffffffffff1682604051610d3a90613e52565b60006040518083038185875af1925050503d8060008114610d77576040519150601f19603f3d011682016040523d82523d6000602084013e610d7c565b606091505b5050905080610dc0576040517f08c379a0000000000000000000000000000000000000000000000000000000008152600401610db790613eb3565b60405180910390fd5b505050565b600860009054906101000a900473ffffffffffffffffffffffffffffffffffffffff1673ffffffffffffffffffffffffffffffffffffffff163373ffffffffffffffffffffffffffffffffffffffff1614610e55576040517f08c379a0000000000000000000000000000000000000000000000000000000008152600401610e4c90613b33565b60405180910390fd5b60016000808373ffffffffffffffffffffffffffffffffffffffff1673ffffffffffffffffffffffffffffffffffffffff16815260200190815260200160002060006101000a81548160ff02191690831515021790555050565b63b034781460e01b81565b600860009054906101000a900473ffffffffffffffffffffffffffffffffffffffff1673ffffffffffffffffffffffffffffffffffffffff163373ffffffffffffffffffffffffffffffffffffffff1614610f4a576040517f08c379a0000000000000000000000000000000000000000000000000000000008152600401610f4190613b33565b60405180910390fd5b60008060008373ffffffffffffffffffffffffffffffffffffffff1673ffffffffffffffffffffffffffffffffffffffff16815260200190815260200160002060006101000a81548160ff02191690831515021790555050565b600860009054906101000a900473ffffffffffffffffffffffffffffffffffffffff1673ffffffffffffffffffffffffffffffffffffffff163373ffffffffffffffffffffffffffffffffffffffff1614611034576040517f08c379a000000000000000000000000000000000000000000000000000000000815260040161102b90613b33565b60405180910390fd5b856004600082815260200190815260200160002060009054906101000a900460ff16611095576040517f08c379a000000000000000000000000000000000000000000000000000000000815260040161108c90613b9f565b60405180910390fd5b60648211156110d9576040517f08c379a00000000000000000000000000000000000000000000000000000000081526004016110d090613f1f565b60405180910390fd5b6000600360008981526020019081526020016000209050868160000181905550858160010181905550848160020181905550838160030160006101000a81548173ffffffffffffffffffffffffffffffffffffffff021916908373ffffffffffffffffffffffffffffffffffffffff160217905550828160040181905550600760009054906101000a900473ffffffffffffffffffffffffffffffffffffffff1673ffffffffffffffffffffffffffffffffffffffff16635c3d151988886040518363ffffffff1660e01b81526004016111b4929190613f4e565b600060405180830381600087803b1580156111ce57600080fd5b505af11580156111e2573d6000803e3d6000fd5b505050505050505050505050565b600960003373ffffffffffffffffffffffffffffffffffffffff1673ffffffffffffffffffffffffffffffffffffffff16815260200190815260200160002060009054906101000a900460ff1661127c576040517f08c379a000000000000000000000000000000000000000000000000000000000815260040161127390613fc3565b60405180910390fd5b6000600160008581526020019081526020016000209050600760009054906101000a900473ffffffffffffffffffffffffffffffffffffffff1673ffffffffffffffffffffffffffffffffffffffff1663480f07c88585856040518463ffffffff1660e01b81526004016112f293929190614010565b600060405180830381600087803b15801561130c57600080fd5b505af1158015611320573d6000803e3d6000fd5b50505050600073ffffffffffffffffffffffffffffffffffffffff168160040160009054906101000a900473ffffffffffffffffffffffffffffffffffffffff1673ffffffffffffffffffffffffffffffffffffffff161461150b57600063b034781460e01b82600101548585856005016040516024016113a4949392919061413b565b604051602081830303815290604052907bffffffffffffffffffffffffffffffffffffffffffffffffffffffff19166020820180517bffffffffffffffffffffffffffffffffffffffffffffffffffffffff838183161783525050505090506000808360040160009054906101000a900473ffffffffffffffffffffffffffffffffffffffff1673ffffffffffffffffffffffffffffffffffffffff168460040160149054906101000a900467ffffffffffffffff1667ffffffffffffffff168460405161147291906141b3565b60006040518083038160008787f1925050503d80600081146114b0576040519150601f19603f3d011682016040523d82523d6000602084013e6114b5565b606091505b5091509150816114fa576040517f08c379a00000000000000000000000000000000000000000000000000000000081526004016114f190614216565b60405180910390fd5b8161150757805160208201fd5b5050505b838160000160009054906101000a900473ffffffffffffffffffffffffffffffffffffffff1673ffffffffffffffffffffffffffffffffffffffff167fb7b413554c4e94c80cfbb175a0e4727f2f425d29b980195c49dac293c2914fc033868660405161157a93929190614236565b60405180910390a33a60058190555050505050565b806004600082815260200190815260200160002060009054906101000a900460ff166115f0576040517f08c379a00000000000000000000000000000000000000000000000000000000081526004016115e790613b9f565b60405180910390fd5b6000600360008481526020019081526020016000209050600081600501541161164e576040517f08c379a0000000000000000000000000000000000000000000000000000000008152600401611645906142b4565b60405180910390fd5b6000816005015490506000826005018190555060008260030160009054906101000a900473ffffffffffffffffffffffffffffffffffffffff1673ffffffffffffffffffffffffffffffffffffffff16826040516116ab90613e52565b60006040518083038185875af1925050503d80600081146116e8576040519150601f19603f3d011682016040523d82523d6000602084013e6116ed565b606091505b5050905080611731576040517f08c379a000000000000000000000000000000000000000000000000000000000815260040161172890614346565b60405180910390fd5b5050505050565b600061174686868686612f42565b6000600360008881526020019081526020016000206040518060c00160405290816000820154815260200160018201548152602001600282015481526020016003820160009054906101000a900473ffffffffffffffffffffffffffffffffffffffff1673ffffffffffffffffffffffffffffffffffffffff1673ffffffffffffffffffffffffffffffffffffffff1681526020016004820154815260200160058201548152505090506000600760009054906101000a900473ffffffffffffffffffffffffffffffffffffffff1673ffffffffffffffffffffffffffffffffffffffff1663c61b0b76836000015184602001518a6040518463ffffffff1660e01b815260040161185993929190614366565b6020604051808303816000875af1158015611878573d6000803e3d6000fd5b505050506040513d601f19601f8201168201806040525081019061189c91906143b9565b90506000600160008381526020019081526020016000209050338160000160006101000a81548173ffffffffffffffffffffffffffffffffffffffff021916908373ffffffffffffffffffffffffffffffffffffffff1602179055508181600101819055508881600201819055508781600301908161191b9190614573565b50868160040160006101000a81548173ffffffffffffffffffffffffffffffffffffffff021916908373ffffffffffffffffffffffffffffffffffffffff160217905550858160040160146101000a81548167ffffffffffffffff021916908367ffffffffffffffff1602179055508481600501908161199b9190614573565b50818160000160009054906101000a900473ffffffffffffffffffffffffffffffffffffffff1673ffffffffffffffffffffffffffffffffffffffff167f849aa5adc3bf6a75cb08afbf31d88d1528c274e5d84e3d4355d23d8e9ebd649b8b8b8b8b8b604051611a0f959493929190614645565b60405180910390a381935050505095945050505050565b600860009054906101000a900473ffffffffffffffffffffffffffffffffffffffff1673ffffffffffffffffffffffffffffffffffffffff163373ffffffffffffffffffffffffffffffffffffffff1614611ab6576040517f08c379a0000000000000000000000000000000000000000000000000000000008152600401611aad90613b33565b60405180910390fd5b816004600082815260200190815260200160002060009054906101000a900460ff16611b17576040517f08c379a0000000000000000000000000000000000000000000000000000000008152600401611b0e90613b9f565b60405180910390fd5b6064821115611b5b576040517f08c379a0000000000000000000000000000000000000000000000000000000008152600401611b5290613f1f565b60405180910390fd5b600060036000858152602001908152602001600020905082816004018190555050505050565b600860009054906101000a900473ffffffffffffffffffffffffffffffffffffffff1673ffffffffffffffffffffffffffffffffffffffff163373ffffffffffffffffffffffffffffffffffffffff1614611c11576040517f08c379a0000000000000000000000000000000000000000000000000000000008152600401611c0890613b33565b60405180910390fd5b806004600082815260200190815260200160002060009054906101000a900460ff16611c72576040517f08c379a0000000000000000000000000000000000000000000000000000000008152600401611c6990613b9f565b60405180910390fd5b6000600360008481526020019081526020016000209050600081600501541115611d7c576000816005015490506000826005018190555060008260030160009054906101000a900473ffffffffffffffffffffffffffffffffffffffff1673ffffffffffffffffffffffffffffffffffffffff1682604051611cf390613e52565b60006040518083038185875af1925050503d8060008114611d30576040519150601f19603f3d011682016040523d82523d6000602084013e611d35565b606091505b5050905080611d79576040517f08c379a0000000000000000000000000000000000000000000000000000000008152600401611d7090614346565b60405180910390fd5b50505b60006004600085815260200190815260200160002060006101000a81548160ff02191690831515021790555060005b600680549050811015611e7657600060068281548110611dce57611dcd613d76565b5b90600052602060002001549050848103611e625760066001600680549050611df69190613ded565b81548110611e0757611e06613d76565b5b906000526020600020015460068381548110611e2657611e25613d76565b5b90600052602060002001819055506006805480611e4657611e456146a6565b5b6001900381819060005260206000200160009055905550611e76565b508080611e6e90613da5565b915050611dab565b50505050565b600860009054906101000a900473ffffffffffffffffffffffffffffffffffffffff1673ffffffffffffffffffffffffffffffffffffffff163373ffffffffffffffffffffffffffffffffffffffff1614611f0c576040517f08c379a0000000000000000000000000000000000000000000000000000000008152600401611f0390613b33565b60405180910390fd5b816004600082815260200190815260200160002060009054906101000a900460ff16611f6d576040517f08c379a0000000000000000000000000000000000000000000000000000000008152600401611f6490613b9f565b60405180910390fd5b600060036000858152602001908152602001600020905082816002018190555050505050565b611f9b6131be565b816004600082815260200190815260200160002060009054906101000a900460ff16611ffc576040517f08c379a0000000000000000000000000000000000000000000000000000000008152600401611ff390613b9f565b60405180910390fd5b6000600360008581526020019081526020016000206040518060c00160405290816000820154815260200160018201548152602001600282015481526020016003820160009054906101000a900473ffffffffffffffffffffffffffffffffffffffff1673ffffffffffffffffffffffffffffffffffffffff1673ffffffffffffffffffffffffffffffffffffffff1681526020016004820154815260200160058201548152505090508092505050919050565b600860009054906101000a900473ffffffffffffffffffffffffffffffffffffffff1673ffffffffffffffffffffffffffffffffffffffff163373ffffffffffffffffffffffffffffffffffffffff1614612140576040517f08c379a000000000000000000000000000000000000000000000000000000000815260040161213790613b33565b60405180910390fd5b6000600581905550565b60016020528060005260406000206000915090508060000160009054906101000a900473ffffffffffffffffffffffffffffffffffffffff169080600101549080600201549080600301805461219f90614071565b80601f01602080910402602001604051908101604052809291908181526020018280546121cb90614071565b80156122185780601f106121ed57610100808354040283529160200191612218565b820191906000526020600020905b8154815290600101906020018083116121fb57829003601f168201915b5050505050908060040160009054906101000a900473ffffffffffffffffffffffffffffffffffffffff16908060040160149054906101000a900467ffffffffffffffff169080600501805461226d90614071565b80601f016020809104026020016040519081016040528092919081815260200182805461229990614071565b80156122e65780601f106122bb576101008083540402835291602001916122e6565b820191906000526020600020905b8154815290600101906020018083116122c957829003601f168201915b5050505050905087565b60006001600083815260200190815260200160002090506000600760009054906101000a900473ffffffffffffffffffffffffffffffffffffffff1673ffffffffffffffffffffffffffffffffffffffff166317861f87846040518263ffffffff1660e01b81526004016123649190613385565b600060405180830381865afa158015612381573d6000803e3d6000fd5b505050506040513d6000823e3d601f19601f820116820180604052508101906123aa9190613cd4565b905060008151116123f0576040517f08c379a00000000000000000000000000000000000000000000000000000000081526004016123e790614721565b60405180910390fd5b600073ffffffffffffffffffffffffffffffffffffffff168260040160009054906101000a900473ffffffffffffffffffffffffffffffffffffffff1673ffffffffffffffffffffffffffffffffffffffff16146125d557600063b034781460e01b8360010154838560050160405160240161246e93929190614741565b604051602081830303815290604052907bffffffffffffffffffffffffffffffffffffffffffffffffffffffff19166020820180517bffffffffffffffffffffffffffffffffffffffffffffffffffffffff838183161783525050505090506000808460040160009054906101000a900473ffffffffffffffffffffffffffffffffffffffff1673ffffffffffffffffffffffffffffffffffffffff168560040160149054906101000a900467ffffffffffffffff1667ffffffffffffffff168460405161253c91906141b3565b60006040518083038160008787f1925050503d806000811461257a576040519150601f19603f3d011682016040523d82523d6000602084013e61257f565b606091505b5091509150816125c4576040517f08c379a00000000000000000000000000000000000000000000000000000000081526004016125bb90614216565b60405180910390fd5b816125d157805160208201fd5b5050505b828260000160009054906101000a900473ffffffffffffffffffffffffffffffffffffffff1673ffffffffffffffffffffffffffffffffffffffff167fb7b413554c4e94c80cfbb175a0e4727f2f425d29b980195c49dac293c2914fc03384604051612642929190614786565b60405180910390a3505050565b600860009054906101000a900473ffffffffffffffffffffffffffffffffffffffff1673ffffffffffffffffffffffffffffffffffffffff163373ffffffffffffffffffffffffffffffffffffffff16146126df576040517f08c379a00000000000000000000000000000000000000000000000000000000081526004016126d690613b33565b60405180910390fd5b6000600960008373ffffffffffffffffffffffffffffffffffffffff1673ffffffffffffffffffffffffffffffffffffffff16815260200190815260200160002060006101000a81548160ff02191690831515021790555050565b600860009054906101000a900473ffffffffffffffffffffffffffffffffffffffff1681565b600760009054906101000a900473ffffffffffffffffffffffffffffffffffffffff1681565b60096020528060005260406000206000915054906101000a900460ff1681565b600860009054906101000a900473ffffffffffffffffffffffffffffffffffffffff1673ffffffffffffffffffffffffffffffffffffffff163373ffffffffffffffffffffffffffffffffffffffff1614612836576040517f08c379a000000000000000000000000000000000000000000000000000000000815260040161282d90613b33565b60405180910390fd5b600660006128449190613210565b565b6002602052806000526040600020600091509050805461286590614071565b80601f016020809104026020016040519081016040528092919081815260200182805461289190614071565b80156128de5780601f106128b3576101008083540402835291602001916128de565b820191906000526020600020905b8154815290600101906020018083116128c157829003601f168201915b505050505081565b600860009054906101000a900473ffffffffffffffffffffffffffffffffffffffff1673ffffffffffffffffffffffffffffffffffffffff163373ffffffffffffffffffffffffffffffffffffffff1614612976576040517f08c379a000000000000000000000000000000000000000000000000000000000815260040161296d90613b33565b60405180910390fd5b6004600087815260200190815260200160002060009054906101000a900460ff16156129d7576040517f08c379a00000000000000000000000000000000000000000000000000000000081526004016129ce90614802565b60405180910390fd5b6064811115612a1b576040517f08c379a0000000000000000000000000000000000000000000000000000000008152600401612a1290613f1f565b60405180910390fd5b60016004600088815260200190815260200160002060006101000a81548160ff02191690831515021790555060068690806001815401808255809150506001900390600052602060002001600090919091909150556000600360008881526020019081526020016000209050858160000181905550848160010181905550838160020181905550828160030160006101000a81548173ffffffffffffffffffffffffffffffffffffffff021916908373ffffffffffffffffffffffffffffffffffffffff160217905550818160040181905550600760009054906101000a900473ffffffffffffffffffffffffffffffffffffffff1673ffffffffffffffffffffffffffffffffffffffff16635c3d151987876040518363ffffffff1660e01b8152600401612b4b929190613f4e565b600060405180830381600087803b158015612b6557600080fd5b505af1158015612b79573d6000803e3d6000fd5b5050505050505050505050565b600860009054906101000a900473ffffffffffffffffffffffffffffffffffffffff1673ffffffffffffffffffffffffffffffffffffffff163373ffffffffffffffffffffffffffffffffffffffff1614612c16576040517f08c379a0000000000000000000000000000000000000000000000000000000008152600401612c0d90613b33565b60405180910390fd5b6001600960008373ffffffffffffffffffffffffffffffffffffffff1673ffffffffffffffffffffffffffffffffffffffff16815260200190815260200160002060006101000a81548160ff02191690831515021790555050565b6000600680549050905090565b600860009054906101000a900473ffffffffffffffffffffffffffffffffffffffff1673ffffffffffffffffffffffffffffffffffffffff163373ffffffffffffffffffffffffffffffffffffffff1614612d0e576040517f08c379a0000000000000000000000000000000000000000000000000000000008152600401612d0590613b33565b60405180910390fd5b80600760006101000a81548173ffffffffffffffffffffffffffffffffffffffff021916908373ffffffffffffffffffffffffffffffffffffffff16021790555050565b600073ffffffffffffffffffffffffffffffffffffffff16600860009054906101000a900473ffffffffffffffffffffffffffffffffffffffff1673ffffffffffffffffffffffffffffffffffffffff1603612e2f5773f5aeb5a4b35be7af7dbfdb765f99bcf479c917bd73ffffffffffffffffffffffffffffffffffffffff163373ffffffffffffffffffffffffffffffffffffffff1614612e2a576040517f08c379a0000000000000000000000000000000000000000000000000000000008152600401612e219061486e565b60405180910390fd5b612ec0565b600860009054906101000a900473ffffffffffffffffffffffffffffffffffffffff1673ffffffffffffffffffffffffffffffffffffffff163373ffffffffffffffffffffffffffffffffffffffff1614612ebf576040517f08c379a0000000000000000000000000000000000000000000000000000000008152600401612eb690613b33565b60405180910390fd5b5b80600860006101000a81548173ffffffffffffffffffffffffffffffffffffffff021916908373ffffffffffffffffffffffffffffffffffffffff16021790555050565b60006020528060005260406000206000915054906101000a900460ff1681565b73f5aeb5a4b35be7af7dbfdb765f99bcf479c917bd81565b60055481565b836004600082815260200190815260200160002060009054906101000a900460ff16612fa3576040517f08c379a0000000000000000000000000000000000000000000000000000000008152600401612f9a90613b9f565b60405180910390fd5b826000808273ffffffffffffffffffffffffffffffffffffffff1673ffffffffffffffffffffffffffffffffffffffff16815260200190815260200160002060009054906101000a900460ff1615613030576040517f08c379a0000000000000000000000000000000000000000000000000000000008152600401613027906148da565b60405180910390fd5b60006003600088815260200190815260200160002090508367ffffffffffffffff1660055461305f9190613bee565b816002015461306e9190613c30565b3410156130b0576040517f08c379a00000000000000000000000000000000000000000000000000000000081526004016130a790614946565b60405180910390fd5b6064816004015482600201546130c69190613bee565b6130d09190614995565b8160050160008282546130e39190613c30565b92505081905550600086511161312e576040517f08c379a000000000000000000000000000000000000000000000000000000000815260040161312590614a12565b60405180910390fd5b60008073ffffffffffffffffffffffffffffffffffffffff168673ffffffffffffffffffffffffffffffffffffffff1614905060008567ffffffffffffffff16141515811515146131b4576040517f08c379a00000000000000000000000000000000000000000000000000000000081526004016131ab90614a7e565b60405180910390fd5b5050505050505050565b6040518060c00160405280600080191681526020016000801916815260200160008152602001600073ffffffffffffffffffffffffffffffffffffffff16815260200160008152602001600081525090565b508054600082559060005260206000209081019061322e9190613231565b50565b5b8082111561324a576000816000905550600101613232565b5090565b6000604051905090565b600080fd5b600080fd5b6000819050919050565b61327581613262565b811461328057600080fd5b50565b6000813590506132928161326c565b92915050565b600073ffffffffffffffffffffffffffffffffffffffff82169050919050565b60006132c382613298565b9050919050565b6132d3816132b8565b81146132de57600080fd5b50565b6000813590506132f0816132ca565b92915050565b6000806040838503121561330d5761330c613258565b5b600061331b85828601613283565b925050602061332c858286016132e1565b9150509250929050565b6000806040838503121561334d5761334c613258565b5b600061335b85828601613283565b925050602061336c85828601613283565b9150509250929050565b61337f81613262565b82525050565b600060208201905061339a6000830184613376565b92915050565b6000602082840312156133b6576133b5613258565b5b60006133c484828501613283565b91505092915050565b600081519050919050565b600082825260208201905092915050565b60005b838110156134075780820151818401526020810190506133ec565b60008484015250505050565b6000601f19601f8301169050919050565b600061342f826133cd565b61343981856133d8565b93506134498185602086016133e9565b61345281613413565b840191505092915050565b600060208201905081810360008301526134778184613424565b905092915050565b60008115159050919050565b6134948161347f565b82525050565b60006020820190506134af600083018461348b565b92915050565b6000602082840312156134cb576134ca613258565b5b60006134d9848285016132e1565b91505092915050565b60007fffffffff0000000000000000000000000000000000000000000000000000000082169050919050565b613517816134e2565b82525050565b6000602082019050613532600083018461350e565b92915050565b6000819050919050565b61354b81613538565b811461355657600080fd5b50565b60008135905061356881613542565b92915050565b60008060008060008060c0878903121561358b5761358a613258565b5b600061359989828a01613283565b96505060206135aa89828a01613559565b95505060406135bb89828a01613559565b94505060606135cc89828a01613283565b93505060806135dd89828a016132e1565b92505060a06135ee89828a01613283565b9150509295509295509295565b600080fd5b600080fd5b600080fd5b60008083601f8401126136205761361f6135fb565b5b8235905067ffffffffffffffff81111561363d5761363c613600565b5b60208301915083600182028301111561365957613658613605565b5b9250929050565b60008060006040848603121561367957613678613258565b5b600061368786828701613283565b935050602084013567ffffffffffffffff8111156136a8576136a761325d565b5b6136b48682870161360a565b92509250509250925092565b600080fd5b7f4e487b7100000000000000000000000000000000000000000000000000000000600052604160045260246000fd5b6136fd82613413565b810181811067ffffffffffffffff8211171561371c5761371b6136c5565b5b80604052505050565b600061372f61324e565b905061373b82826136f4565b919050565b600067ffffffffffffffff82111561375b5761375a6136c5565b5b61376482613413565b9050602081019050919050565b82818337600083830152505050565b600061379361378e84613740565b613725565b9050828152602081018484840111156137af576137ae6136c0565b5b6137ba848285613771565b509392505050565b600082601f8301126137d7576137d66135fb565b5b81356137e7848260208601613780565b91505092915050565b600067ffffffffffffffff82169050919050565b61380d816137f0565b811461381857600080fd5b50565b60008135905061382a81613804565b92915050565b600080600080600060a0868803121561384c5761384b613258565b5b600061385a88828901613283565b955050602086013567ffffffffffffffff81111561387b5761387a61325d565b5b613887888289016137c2565b9450506040613898888289016132e1565b93505060606138a98882890161381b565b925050608086013567ffffffffffffffff8111156138ca576138c961325d565b5b6138d6888289016137c2565b9150509295509295909350565b6138ec81613538565b82525050565b6138fb81613262565b82525050565b61390a816132b8565b82525050565b60c08201600082015161392660008501826138e3565b50602082015161393960208501826138e3565b50604082015161394c60408501826138f2565b50606082015161395f6060850182613901565b50608082015161397260808501826138f2565b5060a082015161398560a08501826138f2565b50505050565b600060c0820190506139a06000830184613910565b92915050565b6139af816132b8565b82525050565b6139be816137f0565b82525050565b600060e0820190506139d9600083018a6139a6565b6139e66020830189613376565b6139f36040830188613376565b8181036060830152613a058187613424565b9050613a1460808301866139a6565b613a2160a08301856139b5565b81810360c0830152613a338184613424565b905098975050505050505050565b6000602082019050613a5660008301846139a6565b92915050565b6000819050919050565b6000613a81613a7c613a7784613298565b613a5c565b613298565b9050919050565b6000613a9382613a66565b9050919050565b6000613aa582613a88565b9050919050565b613ab581613a9a565b82525050565b6000602082019050613ad06000830184613aac565b92915050565b600082825260208201905092915050565b7f4e6f7420746865206f776e657200000000000000000000000000000000000000600082015250565b6000613b1d600d83613ad6565b9150613b2882613ae7565b602082019050919050565b60006020820190508181036000830152613b4c81613b10565b9050919050565b7f6d6f64656c20646f6573206e6f74206578697374000000000000000000000000600082015250565b6000613b89601483613ad6565b9150613b9482613b53565b602082019050919050565b60006020820190508181036000830152613bb881613b7c565b9050919050565b7f4e487b7100000000000000000000000000000000000000000000000000000000600052601160045260246000fd5b6000613bf982613262565b9150613c0483613262565b9250828202613c1281613262565b91508282048414831517613c2957613c28613bbf565b5b5092915050565b6000613c3b82613262565b9150613c4683613262565b9250828201905080821115613c5e57613c5d613bbf565b5b92915050565b6000613c77613c7284613740565b613725565b905082815260208101848484011115613c9357613c926136c0565b5b613c9e8482856133e9565b509392505050565b600082601f830112613cbb57613cba6135fb565b5b8151613ccb848260208601613c64565b91505092915050565b600060208284031215613cea57613ce9613258565b5b600082015167ffffffffffffffff811115613d0857613d0761325d565b5b613d1484828501613ca6565b91505092915050565b613d268161347f565b8114613d3157600080fd5b50565b600081519050613d4381613d1d565b92915050565b600060208284031215613d5f57613d5e613258565b5b6000613d6d84828501613d34565b91505092915050565b7f4e487b7100000000000000000000000000000000000000000000000000000000600052603260045260246000fd5b6000613db082613262565b91507fffffffffffffffffffffffffffffffffffffffffffffffffffffffffffffffff8203613de257613de1613bbf565b5b600182019050919050565b6000613df882613262565b9150613e0383613262565b9250828203905081811115613e1b57613e1a613bbf565b5b92915050565b600081905092915050565b50565b6000613e3c600083613e21565b9150613e4782613e2c565b600082019050919050565b6000613e5d82613e2f565b9150819050919050565b7f7769746864726177206661696c65640000000000000000000000000000000000600082015250565b6000613e9d600f83613ad6565b9150613ea882613e67565b602082019050919050565b60006020820190508181036000830152613ecc81613e90565b9050919050565b7f70657263656e746167652073686f756c64206265203c3d203130300000000000600082015250565b6000613f09601b83613ad6565b9150613f1482613ed3565b602082019050919050565b60006020820190508181036000830152613f3881613efc565b9050919050565b613f4881613538565b82525050565b6000604082019050613f636000830185613f3f565b613f706020830184613f3f565b9392505050565b7f41646472657373206e6f742077686974656c6973746564000000000000000000600082015250565b6000613fad601783613ad6565b9150613fb882613f77565b602082019050919050565b60006020820190508181036000830152613fdc81613fa0565b9050919050565b6000613fef83856133d8565b9350613ffc838584613771565b61400583613413565b840190509392505050565b60006040820190506140256000830186613376565b8181036020830152614038818486613fe3565b9050949350505050565b7f4e487b7100000000000000000000000000000000000000000000000000000000600052602260045260246000fd5b6000600282049050600182168061408957607f821691505b60208210810361409c5761409b614042565b5b50919050565b60008190508160005260206000209050919050565b600081546140c481614071565b6140ce81866133d8565b945060018216600081146140e957600181146140ff57614132565b60ff198316865281151560200286019350614132565b614108856140a2565b60005b8381101561412a5781548189015260018201915060208101905061410b565b808801955050505b50505092915050565b60006060820190506141506000830187613376565b8181036020830152614163818587613fe3565b9050818103604083015261417781846140b7565b905095945050505050565b600061418d826133cd565b6141978185613e21565b93506141a78185602086016133e9565b80840191505092915050565b60006141bf8284614182565b915081905092915050565b7f6661696c656420746f2063616c6c2073656c6563746f72000000000000000000600082015250565b6000614200601783613ad6565b915061420b826141ca565b602082019050919050565b6000602082019050818103600083015261422f816141f3565b9050919050565b600060408201905061424b60008301866139a6565b818103602083015261425e818486613fe3565b9050949350505050565b7f616363756d756c61746520726576656e75652069732030000000000000000000600082015250565b600061429e601783613ad6565b91506142a982614268565b602082019050919050565b600060208201905081810360008301526142cd81614291565b9050919050565b7f636c61696d4d6f64656c526576656e7565207472616e73666572206661696c6560008201527f6400000000000000000000000000000000000000000000000000000000000000602082015250565b6000614330602183613ad6565b915061433b826142d4565b604082019050919050565b6000602082019050818103600083015261435f81614323565b9050919050565b600060608201905061437b6000830186613f3f565b6143886020830185613f3f565b818103604083015261439a8184613424565b9050949350505050565b6000815190506143b38161326c565b92915050565b6000602082840312156143cf576143ce613258565b5b60006143dd848285016143a4565b91505092915050565b60006020601f8301049050919050565b600082821b905092915050565b6000600883026144337fffffffffffffffffffffffffffffffffffffffffffffffffffffffffffffffff826143f6565b61443d86836143f6565b95508019841693508086168417925050509392505050565b600061447061446b61446684613262565b613a5c565b613262565b9050919050565b6000819050919050565b61448a83614455565b61449e61449682614477565b848454614403565b825550505050565b600090565b6144b36144a6565b6144be818484614481565b505050565b5b818110156144e2576144d76000826144ab565b6001810190506144c4565b5050565b601f821115614527576144f8816140a2565b614501846143e6565b81016020851015614510578190505b61452461451c856143e6565b8301826144c3565b50505b505050565b600082821c905092915050565b600061454a6000198460080261452c565b1980831691505092915050565b60006145638383614539565b9150826002028217905092915050565b61457c826133cd565b67ffffffffffffffff811115614595576145946136c5565b5b61459f8254614071565b6145aa8282856144e6565b600060209050601f8311600181146145dd57600084156145cb578287015190505b6145d58582614557565b86555061463d565b601f1984166145eb866140a2565b60005b82811015614613578489015182556001820191506020850194506020810190506145ee565b86831015614630578489015161462c601f891682614539565b8355505b6001600288020188555050505b505050505050565b600060a08201905061465a6000830188613376565b818103602083015261466c8187613424565b905061467b60408301866139a6565b61468860608301856139b5565b818103608083015261469a8184613424565b90509695505050505050565b7f4e487b7100000000000000000000000000000000000000000000000000000000600052603160045260246000fd5b7f6f7574707574206e6f742075706c6f6164656400000000000000000000000000600082015250565b600061470b601383613ad6565b9150614716826146d5565b602082019050919050565b6000602082019050818103600083015261473a816146fe565b9050919050565b60006060820190506147566000830186613376565b81810360208301526147688185613424565b9050818103604083015261477c81846140b7565b9050949350505050565b600060408201905061479b60008301856139a6565b81810360208301526147ad8184613424565b90509392505050565b7f6d6f64656c20616c726561647920657869737473000000000000000000000000600082015250565b60006147ec601483613ad6565b91506147f7826147b6565b602082019050919050565b6000602082019050818103600083015261481b816147df565b9050919050565b7f6f6e6c79207365727665722063616e20696e6974206f776e6572000000000000600082015250565b6000614858601a83613ad6565b915061486382614822565b602082019050919050565b600060208201905081810360008301526148878161484b565b9050919050565b7f496e20626c61636b6c6973740000000000000000000000000000000000000000600082015250565b60006148c4600c83613ad6565b91506148cf8261488e565b602082019050919050565b600060208201905081810360008301526148f3816148b7565b9050919050565b7f696e73756666696369656e742066656500000000000000000000000000000000600082015250565b6000614930601083613ad6565b915061493b826148fa565b602082019050919050565b6000602082019050818103600083015261495f81614923565b9050919050565b7f4e487b7100000000000000000000000000000000000000000000000000000000600052601260045260246000fd5b60006149a082613262565b91506149ab83613262565b9250826149bb576149ba614966565b5b828204905092915050565b7f696e707574206e6f742075706c6f616465640000000000000000000000000000600082015250565b60006149fc601283613ad6565b9150614a07826149c6565b602082019050919050565b60006020820190508181036000830152614a2b816149ef565b9050919050565b7f496e76616c6964206761734c696d697400000000000000000000000000000000600082015250565b6000614a68601083613ad6565b9150614a7382614a32565b602082019050919050565b60006020820190508181036000830152614a9781614a5b565b905091905056fea264697066735822122077e5ca0e1dfd86955f0a4d19a5d7aae4ca1779df9ec9407a2e29024bbbdacce764736f6c63430008140033",
  "linkReferences": {},
  "deployedLinkReferences": {}
}