{
  "_format": "hh-sol-artifact-1",
  "contractName": "FoodProAI",
  "sourceName": "contracts/FoodProAI.sol",
  "abi": [
    {
      "inputs": [
        {
          "internalType": "contract IAIOracle",
          "name": "_aiOracle",
          "type": "address"
        }
      ],
      "stateMutability": "nonpayable",
      "type": "constructor"
    },
    {
      "inputs": [
        {
          "internalType": "contract IAIOracle",
          "name": "expected",
          "type": "address"
        },
        {
          "internalType": "contract IAIOracle",
          "name": "found",
          "type": "address"
        }
      ],
      "name": "UnauthorizedCallbackSource",
      "type": "error"
    },
    {
      "anonymous": false,
      "inputs": [
        {
          "indexed": false,
          "internalType": "uint256",
          "name": "requestId",
          "type": "uint256"
        },
        {
          "indexed": false,
          "internalType": "address",
          "name": "sender",
          "type": "address"
        },
        {
          "indexed": false,
          "internalType": "uint256",
          "name": "modelId",
          "type": "uint256"
        },
        {
          "indexed": false,
          "internalType": "string",
          "name": "prompt",
          "type": "string"
        }
      ],
      "name": "foodPromptRequest",
      "type": "event"
    },
    {
      "anonymous": false,
      "inputs": [
        {
          "indexed": false,
          "internalType": "uint256",
          "name": "requestId",
          "type": "uint256"
        },
        {
          "indexed": false,
          "internalType": "uint256",
          "name": "modelId",
          "type": "uint256"
        },
        {
          "indexed": false,
          "internalType": "string",
          "name": "input",
          "type": "string"
        },
        {
          "indexed": false,
          "internalType": "string",
          "name": "output",
          "type": "string"
        },
        {
          "indexed": false,
          "internalType": "bytes",
          "name": "callbackData",
          "type": "bytes"
        }
      ],
      "name": "foodRecommendation",
      "type": "event"
    },
    {
      "inputs": [],
      "name": "aiOracle",
      "outputs": [
        {
          "internalType": "contract IAIOracle",
          "name": "",
          "type": "address"
        }
      ],
      "stateMutability": "view",
      "type": "function"
    },
    {
      "inputs": [
        {
          "internalType": "uint256",
          "name": "requestId",
          "type": "uint256"
        },
        {
          "internalType": "bytes",
          "name": "output",
          "type": "bytes"
        },
        {
          "internalType": "bytes",
          "name": "callbackData",
          "type": "bytes"
        }
      ],
      "name": "aiOracleCallback",
      "outputs": [],
      "stateMutability": "nonpayable",
      "type": "function"
    },
    {
      "inputs": [
        {
          "internalType": "uint256",
          "name": "",
          "type": "uint256"
        }
      ],
      "name": "callbackGasLimit",
      "outputs": [
        {
          "internalType": "uint64",
          "name": "",
          "type": "uint64"
        }
      ],
      "stateMutability": "view",
      "type": "function"
    },
    {
      "inputs": [
        {
          "internalType": "uint256",
          "name": "modelId",
          "type": "uint256"
        }
      ],
      "name": "estimateFee",
      "outputs": [
        {
          "internalType": "uint256",
          "name": "",
          "type": "uint256"
        }
      ],
      "stateMutability": "view",
      "type": "function"
    },
    {
      "inputs": [
        {
          "internalType": "uint256",
          "name": "",
          "type": "uint256"
        },
        {
          "internalType": "string",
          "name": "",
          "type": "string"
        }
      ],
      "name": "foodRecommendations",
      "outputs": [
        {
          "internalType": "string",
          "name": "",
          "type": "string"
        }
      ],
      "stateMutability": "view",
      "type": "function"
    },
    {
      "inputs": [
        {
          "internalType": "uint256",
          "name": "modelId",
          "type": "uint256"
        },
        {
          "internalType": "string",
          "name": "prompt",
          "type": "string"
        }
      ],
      "name": "getFoodRecommendation",
      "outputs": [
        {
          "internalType": "string",
          "name": "",
          "type": "string"
        }
      ],
      "stateMutability": "view",
      "type": "function"
    },
    {
      "inputs": [
        {
          "internalType": "uint256",
          "name": "requestId",
          "type": "uint256"
        }
      ],
      "name": "isFinalized",
      "outputs": [
        {
          "internalType": "bool",
          "name": "",
          "type": "bool"
        }
      ],
      "stateMutability": "view",
      "type": "function"
    },
    {
      "inputs": [],
      "name": "owner",
      "outputs": [
        {
          "internalType": "address",
          "name": "",
          "type": "address"
        }
      ],
      "stateMutability": "view",
      "type": "function"
    },
    {
      "inputs": [
        {
          "internalType": "uint256",
          "name": "modelId",
          "type": "uint256"
        },
        {
          "components": [
            {
              "internalType": "string",
              "name": "cuisineType",
              "type": "string"
            },
            {
              "internalType": "string",
              "name": "mealType",
              "type": "string"
            },
            {
              "internalType": "string",
              "name": "dietaryRestriction",
              "type": "string"
            },
            {
              "internalType": "string",
              "name": "mood",
              "type": "string"
            }
          ],
          "internalType": "struct FoodProAI.FoodPreferences",
          "name": "preferences",
          "type": "tuple"
        }
      ],
      "name": "recommendFood",
      "outputs": [],
      "stateMutability": "payable",
      "type": "function"
    },
    {
      "inputs": [
        {
          "internalType": "uint256",
          "name": "",
          "type": "uint256"
        }
      ],
      "name": "requests",
      "outputs": [
        {
          "internalType": "address",
          "name": "sender",
          "type": "address"
        },
        {
          "internalType": "uint256",
          "name": "modelId",
          "type": "uint256"
        },
        {
          "internalType": "bytes",
          "name": "input",
          "type": "bytes"
        },
        {
          "internalType": "bytes",
          "name": "output",
          "type": "bytes"
        }
      ],
      "stateMutability": "view",
      "type": "function"
    }
  ],
  "bytecode": "0x60a06040523480156200001157600080fd5b50604051620024e2380380620024e2833981810160405281019062000037919062000170565b808073ffffffffffffffffffffffffffffffffffffffff1660808173ffffffffffffffffffffffffffffffffffffffff168152505050336000806101000a81548173ffffffffffffffffffffffffffffffffffffffff021916908373ffffffffffffffffffffffffffffffffffffffff160217905550624c4b4060026000600b815260200190815260200160002060006101000a81548167ffffffffffffffff021916908367ffffffffffffffff16021790555050620001a2565b600080fd5b600073ffffffffffffffffffffffffffffffffffffffff82169050919050565b60006200012482620000f7565b9050919050565b6000620001388262000117565b9050919050565b6200014a816200012b565b81146200015657600080fd5b50565b6000815190506200016a816200013f565b92915050565b600060208284031215620001895762000188620000f2565b5b6000620001998482850162000159565b91505092915050565b6080516122fa620001e8600039600081816102a601528181610396015281816103bc015281816106ab015281816106fe015281816109770152610b0301526122fa6000f3fe6080604052600436106100915760003560e01c806381d12c581161005957806381d12c58146101b55780638da5cb5b146101f5578063b034781414610220578063d021be6414610249578063def1c38c1461028657610091565b8063127e8e4d1461009657806320f38718146100d357806331b221cd1461011057806333727c4d1461013b5780637deeaffb14610178575b600080fd5b3480156100a257600080fd5b506100bd60048036038101906100b89190610dc2565b6102a2565b6040516100ca9190610dfe565b60405180910390f35b3480156100df57600080fd5b506100fa60048036038101906100f59190610dc2565b61036d565b6040516101079190610e3c565b60405180910390f35b34801561011c57600080fd5b50610125610394565b6040516101329190610ed6565b60405180910390f35b34801561014757600080fd5b50610162600480360381019061015d9190610dc2565b6103b8565b60405161016f9190610f0c565b60405180910390f35b34801561018457600080fd5b5061019f600480360381019061019a9190610f8c565b61045b565b6040516101ac919061107c565b60405180910390f35b3480156101c157600080fd5b506101dc60048036038101906101d79190610dc2565b610520565b6040516101ec9493929190611114565b60405180910390f35b34801561020157600080fd5b5061020a610680565b6040516102179190611167565b60405180910390f35b34801561022c57600080fd5b50610247600480360381019061024291906111d8565b6106a4565b005b34801561025557600080fd5b50610270600480360381019061026b919061139d565b6108b2565b60405161027d919061107c565b60405180910390f35b6102a0600480360381019061029b919061141d565b610975565b005b60007f000000000000000000000000000000000000000000000000000000000000000073ffffffffffffffffffffffffffffffffffffffff1662e1d8d0836002600086815260200190815260200160002060009054906101000a900467ffffffffffffffff166040518363ffffffff1660e01b81526004016103259291906114aa565b602060405180830381865afa158015610342573d6000803e3d6000fd5b505050506040513d601f19601f8201168201806040525081019061036691906114e8565b9050919050565b60026020528060005260406000206000915054906101000a900467ffffffffffffffff1681565b7f000000000000000000000000000000000000000000000000000000000000000081565b60007f000000000000000000000000000000000000000000000000000000000000000073ffffffffffffffffffffffffffffffffffffffff166333727c4d836040518263ffffffff1660e01b81526004016104139190610dfe565b602060405180830381865afa158015610430573d6000803e3d6000fd5b505050506040513d601f19601f820116820180604052508101906104549190611541565b9050919050565b606060036000858152602001908152602001600020838360405161048092919061159e565b90815260200160405180910390208054610499906115e6565b80601f01602080910402602001604051908101604052809291908181526020018280546104c5906115e6565b80156105125780601f106104e757610100808354040283529160200191610512565b820191906000526020600020905b8154815290600101906020018083116104f557829003601f168201915b505050505090509392505050565b60016020528060005260406000206000915090508060000160009054906101000a900473ffffffffffffffffffffffffffffffffffffffff169080600101549080600201805461056f906115e6565b80601f016020809104026020016040519081016040528092919081815260200182805461059b906115e6565b80156105e85780601f106105bd576101008083540402835291602001916105e8565b820191906000526020600020905b8154815290600101906020018083116105cb57829003601f168201915b5050505050908060030180546105fd906115e6565b80601f0160208091040260200160405190810160405280929190818152602001828054610629906115e6565b80156106765780601f1061064b57610100808354040283529160200191610676565b820191906000526020600020905b81548152906001019060200180831161065957829003601f168201915b5050505050905084565b60008054906101000a900473ffffffffffffffffffffffffffffffffffffffff1681565b60003390507f000000000000000000000000000000000000000000000000000000000000000073ffffffffffffffffffffffffffffffffffffffff168173ffffffffffffffffffffffffffffffffffffffff161461075b577f0000000000000000000000000000000000000000000000000000000000000000816040517f865c066e000000000000000000000000000000000000000000000000000000008152600401610752929190611617565b60405180910390fd5b6000600160008881526020019081526020016000209050600073ffffffffffffffffffffffffffffffffffffffff168160000160009054906101000a900473ffffffffffffffffffffffffffffffffffffffff1673ffffffffffffffffffffffffffffffffffffffff1603610805576040517f08c379a00000000000000000000000000000000000000000000000000000000081526004016107fc9061168c565b60405180910390fd5b8585826003019182610818929190611859565b50858560036000846001015481526020019081526020016000208360020160405161084391906119c1565b9081526020016040518091039020918261085e929190611a3e565b507f0ec9725e4c4c239eed12f439702dba79855a106a8ad16a9fc45c2b502840942787826001015483600201898989896040516108a19796959493929190611bec565b60405180910390a150505050505050565b6003602052816000526040600020818051602081018201805184825260208301602085012081835280955050505050506000915091505080546108f4906115e6565b80601f0160208091040260200160405190810160405280929190818152602001828054610920906115e6565b801561096d5780601f106109425761010080835404028352916020019161096d565b820191906000526020600020905b81548152906001019060200180831161095057829003601f168201915b505050505081565b7f000000000000000000000000000000000000000000000000000000000000000073ffffffffffffffffffffffffffffffffffffffff1662e1d8d0836002600086815260200190815260200160002060009054906101000a900467ffffffffffffffff166040518363ffffffff1660e01b81526004016109f69291906114aa565b602060405180830381865afa158015610a13573d6000803e3d6000fd5b505050506040513d601f19601f82011682018060405250810190610a3791906114e8565b341015610a79576040517f08c379a0000000000000000000000000000000000000000000000000000000008152600401610a7090611ca4565b60405180910390fd5b6000818060200190610a8b9190611cd3565b838060000190610a9b9190611cd3565b858060400190610aab9190611cd3565b878060600190610abb9190611cd3565b604051602001610ad2989796959493929190611ed8565b60405160208183030381529060405290506000819050600060405180602001604052806000815250905060003090507f000000000000000000000000000000000000000000000000000000000000000073ffffffffffffffffffffffffffffffffffffffff16635b95380634888685600260008d815260200190815260200160002060009054906101000a900467ffffffffffffffff16886040518763ffffffff1660e01b8152600401610b8a959493929190611f55565b60206040518083038185885af193505050508015610bc657506040513d601f19601f82011682018060405250810190610bc391906114e8565b60015b610cbc57610bd2611fc3565b806308c379a003610c4d5750610be6611fe5565b80610bf15750610c4f565b80604051602001610c0291906120f2565b6040516020818303038152906040526040517f08c379a0000000000000000000000000000000000000000000000000000000008152600401610c44919061107c565b60405180910390fd5b505b3d8060008114610c7b576040519150601f19603f3d011682016040523d82523d6000602084013e610c80565b606091505b506040517f08c379a0000000000000000000000000000000000000000000000000000000008152600401610cb390612186565b60405180910390fd5b600060016000838152602001908152602001600020905084816002019081610ce491906121a6565b50338160000160006101000a81548173ffffffffffffffffffffffffffffffffffffffff021916908373ffffffffffffffffffffffffffffffffffffffff1602179055508781600101819055507fca878cb0b87fdbab87f6113ce5a197b0b50472eac35ac880ecfcf4a5f1b5d6d782338a89604051610d669493929190612278565b60405180910390a15050505050505050565b6000604051905090565b600080fd5b600080fd5b6000819050919050565b610d9f81610d8c565b8114610daa57600080fd5b50565b600081359050610dbc81610d96565b92915050565b600060208284031215610dd857610dd7610d82565b5b6000610de684828501610dad565b91505092915050565b610df881610d8c565b82525050565b6000602082019050610e136000830184610def565b92915050565b600067ffffffffffffffff82169050919050565b610e3681610e19565b82525050565b6000602082019050610e516000830184610e2d565b92915050565b600073ffffffffffffffffffffffffffffffffffffffff82169050919050565b6000819050919050565b6000610e9c610e97610e9284610e57565b610e77565b610e57565b9050919050565b6000610eae82610e81565b9050919050565b6000610ec082610ea3565b9050919050565b610ed081610eb5565b82525050565b6000602082019050610eeb6000830184610ec7565b92915050565b60008115159050919050565b610f0681610ef1565b82525050565b6000602082019050610f216000830184610efd565b92915050565b600080fd5b600080fd5b600080fd5b60008083601f840112610f4c57610f4b610f27565b5b8235905067ffffffffffffffff811115610f6957610f68610f2c565b5b602083019150836001820283011115610f8557610f84610f31565b5b9250929050565b600080600060408486031215610fa557610fa4610d82565b5b6000610fb386828701610dad565b935050602084013567ffffffffffffffff811115610fd457610fd3610d87565b5b610fe086828701610f36565b92509250509250925092565b600081519050919050565b600082825260208201905092915050565b60005b8381101561102657808201518184015260208101905061100b565b60008484015250505050565b6000601f19601f8301169050919050565b600061104e82610fec565b6110588185610ff7565b9350611068818560208601611008565b61107181611032565b840191505092915050565b600060208201905081810360008301526110968184611043565b905092915050565b60006110a982610e57565b9050919050565b6110b98161109e565b82525050565b600081519050919050565b600082825260208201905092915050565b60006110e6826110bf565b6110f081856110ca565b9350611100818560208601611008565b61110981611032565b840191505092915050565b600060808201905061112960008301876110b0565b6111366020830186610def565b818103604083015261114881856110db565b9050818103606083015261115c81846110db565b905095945050505050565b600060208201905061117c60008301846110b0565b92915050565b60008083601f84011261119857611197610f27565b5b8235905067ffffffffffffffff8111156111b5576111b4610f2c565b5b6020830191508360018202830111156111d1576111d0610f31565b5b9250929050565b6000806000806000606086880312156111f4576111f3610d82565b5b600061120288828901610dad565b955050602086013567ffffffffffffffff81111561122357611222610d87565b5b61122f88828901611182565b9450945050604086013567ffffffffffffffff81111561125257611251610d87565b5b61125e88828901611182565b92509250509295509295909350565b600080fd5b7f4e487b7100000000000000000000000000000000000000000000000000000000600052604160045260246000fd5b6112aa82611032565b810181811067ffffffffffffffff821117156112c9576112c8611272565b5b80604052505050565b60006112dc610d78565b90506112e882826112a1565b919050565b600067ffffffffffffffff82111561130857611307611272565b5b61131182611032565b9050602081019050919050565b82818337600083830152505050565b600061134061133b846112ed565b6112d2565b90508281526020810184848401111561135c5761135b61126d565b5b61136784828561131e565b509392505050565b600082601f83011261138457611383610f27565b5b813561139484826020860161132d565b91505092915050565b600080604083850312156113b4576113b3610d82565b5b60006113c285828601610dad565b925050602083013567ffffffffffffffff8111156113e3576113e2610d87565b5b6113ef8582860161136f565b9150509250929050565b600080fd5b600060808284031215611414576114136113f9565b5b81905092915050565b6000806040838503121561143457611433610d82565b5b600061144285828601610dad565b925050602083013567ffffffffffffffff81111561146357611462610d87565b5b61146f858286016113fe565b9150509250929050565b600061149461148f61148a84610e19565b610e77565b610d8c565b9050919050565b6114a481611479565b82525050565b60006040820190506114bf6000830185610def565b6114cc602083018461149b565b9392505050565b6000815190506114e281610d96565b92915050565b6000602082840312156114fe576114fd610d82565b5b600061150c848285016114d3565b91505092915050565b61151e81610ef1565b811461152957600080fd5b50565b60008151905061153b81611515565b92915050565b60006020828403121561155757611556610d82565b5b60006115658482850161152c565b91505092915050565b600081905092915050565b6000611585838561156e565b935061159283858461131e565b82840190509392505050565b60006115ab828486611579565b91508190509392505050565b7f4e487b7100000000000000000000000000000000000000000000000000000000600052602260045260246000fd5b600060028204905060018216806115fe57607f821691505b602082108103611611576116106115b7565b5b50919050565b600060408201905061162c6000830185610ec7565b6116396020830184610ec7565b9392505050565b7f7265717565737420646f6573206e6f7420657869737400000000000000000000600082015250565b6000611676601683610ff7565b915061168182611640565b602082019050919050565b600060208201905081810360008301526116a581611669565b9050919050565b600082905092915050565b60008190508160005260206000209050919050565b60006020601f8301049050919050565b600082821b905092915050565b6000600883026117197fffffffffffffffffffffffffffffffffffffffffffffffffffffffffffffffff826116dc565b61172386836116dc565b95508019841693508086168417925050509392505050565b600061175661175161174c84610d8c565b610e77565b610d8c565b9050919050565b6000819050919050565b6117708361173b565b61178461177c8261175d565b8484546116e9565b825550505050565b600090565b61179961178c565b6117a4818484611767565b505050565b5b818110156117c8576117bd600082611791565b6001810190506117aa565b5050565b601f82111561180d576117de816116b7565b6117e7846116cc565b810160208510156117f6578190505b61180a611802856116cc565b8301826117a9565b50505b505050565b600082821c905092915050565b600061183060001984600802611812565b1980831691505092915050565b6000611849838361181f565b9150826002028217905092915050565b61186383836116ac565b67ffffffffffffffff81111561187c5761187b611272565b5b61188682546115e6565b6118918282856117cc565b6000601f8311600181146118c057600084156118ae578287013590505b6118b8858261183d565b865550611920565b601f1984166118ce866116b7565b60005b828110156118f6578489013582556001820191506020850194506020810190506118d1565b86831015611913578489013561190f601f89168261181f565b8355505b6001600288020188555050505b50505050505050565b60008190508160005260206000209050919050565b6000815461194b816115e6565b611955818661156e565b945060018216600081146119705760018114611985576119b8565b60ff19831686528115158202860193506119b8565b61198e85611929565b60005b838110156119b057815481890152600182019150602081019050611991565b838801955050505b50505092915050565b60006119cd828461193e565b915081905092915050565b600082905092915050565b60008190508160005260206000209050919050565b601f821115611a3957611a0a816119e3565b611a13846116cc565b81016020851015611a22578190505b611a36611a2e856116cc565b8301826117a9565b50505b505050565b611a4883836119d8565b67ffffffffffffffff811115611a6157611a60611272565b5b611a6b82546115e6565b611a768282856119f8565b6000601f831160018114611aa55760008415611a93578287013590505b611a9d858261183d565b865550611b05565b601f198416611ab3866119e3565b60005b82811015611adb57848901358255600182019150602085019450602081019050611ab6565b86831015611af85784890135611af4601f89168261181f565b8355505b6001600288020188555050505b50505050505050565b60008154611b1b816115e6565b611b258186610ff7565b94506001821660008114611b405760018114611b5657611b89565b60ff198316865281151560200286019350611b89565b611b5f85611929565b60005b83811015611b8157815481890152600182019150602081019050611b62565b808801955050505b50505092915050565b6000611b9e8385610ff7565b9350611bab83858461131e565b611bb483611032565b840190509392505050565b6000611bcb83856110ca565b9350611bd883858461131e565b611be183611032565b840190509392505050565b600060a082019050611c01600083018a610def565b611c0e6020830189610def565b8181036040830152611c208188611b0e565b90508181036060830152611c35818688611b92565b90508181036080830152611c4a818486611bbf565b905098975050505050505050565b7f496e73756666696369656e742066656500000000000000000000000000000000600082015250565b6000611c8e601083610ff7565b9150611c9982611c58565b602082019050919050565b60006020820190508181036000830152611cbd81611c81565b9050919050565b600080fd5b600080fd5b600080fd5b60008083356001602003843603038112611cf057611cef611cc4565b5b80840192508235915067ffffffffffffffff821115611d1257611d11611cc9565b5b602083019250600182023603831315611d2e57611d2d611cce565b5b509250929050565b7f4c697374203620666f6f64207265636f6d6d656e646174696f6e7320666f7220600082015250565b6000611d6c60208361156e565b9150611d7782611d36565b602082019050919050565b7f2063756973696e653a2000000000000000000000000000000000000000000000600082015250565b6000611db8600a8361156e565b9150611dc382611d82565b600a82019050919050565b7f2e2044696574617279207265737472696374696f6e3a20000000000000000000600082015250565b6000611e0460178361156e565b9150611e0f82611dce565b601782019050919050565b7f2e204d6f6f643a20000000000000000000000000000000000000000000000000600082015250565b6000611e5060088361156e565b9150611e5b82611e1a565b600882019050919050565b7f2e20466f726d61743a2027446973682031207c20446973682032207c2044697360008201527f682033207c20446973682034207c20446973682035207c204469736820362700602082015250565b6000611ec2603f8361156e565b9150611ecd82611e66565b603f82019050919050565b6000611ee382611d5f565b9150611ef0828a8c611579565b9150611efb82611dab565b9150611f0882888a611579565b9150611f1382611df7565b9150611f20828688611579565b9150611f2b82611e43565b9150611f38828486611579565b9150611f4382611eb5565b91508190509998505050505050505050565b600060a082019050611f6a6000830188610def565b8181036020830152611f7c81876110db565b9050611f8b60408301866110b0565b611f986060830185610e2d565b8181036080830152611faa81846110db565b90509695505050505050565b60008160e01c9050919050565b600060033d1115611fe25760046000803e611fdf600051611fb6565b90505b90565b600060443d1061207257611ff7610d78565b60043d036004823e80513d602482011167ffffffffffffffff8211171561201f575050612072565b808201805167ffffffffffffffff81111561203d5750505050612072565b80602083010160043d03850181111561205a575050505050612072565b612069826020018501866112a1565b82955050505050505b90565b7f41494f7261636c652072657175657374206661696c65643a2000000000000000600082015250565b60006120ab60198361156e565b91506120b682612075565b601982019050919050565b60006120cc82610fec565b6120d6818561156e565b93506120e6818560208601611008565b80840191505092915050565b60006120fd8261209e565b915061210982846120c1565b915081905092915050565b7f41494f7261636c652072657175657374206661696c6564207769746820756e6b60008201527f6e6f776e206572726f7200000000000000000000000000000000000000000000602082015250565b6000612170602a83610ff7565b915061217b82612114565b604082019050919050565b6000602082019050818103600083015261219f81612163565b9050919050565b6121af826110bf565b67ffffffffffffffff8111156121c8576121c7611272565b5b6121d282546115e6565b6121dd8282856117cc565b600060209050601f83116001811461221057600084156121fe578287015190505b612208858261183d565b865550612270565b601f19841661221e866116b7565b60005b8281101561224657848901518255600182019150602085019450602081019050612221565b86831015612263578489015161225f601f89168261181f565b8355505b6001600288020188555050505b505050505050565b600060808201905061228d6000830187610def565b61229a60208301866110b0565b6122a76040830185610def565b81810360608301526122b98184611043565b90509594505050505056fea2646970667358221220c5b287a5fc3d25371a723283e5eb21a1e282e1fbdbb4149a8e4f85e2db8c699264736f6c63430008140033",
  "linkReferences": {},
  "deployedLinkReferences": {}
}